:100000000C9462060C94A6060C94A6060C94A60604
:100010000C94A6060C94A6060C94A6060C94A606B0
:100020000C94A6060C94A6060C943D0E0C940F0F8F
:100030000C94401E0C94A6060C94A6060C94A606DE
:100040000C94A6060C94A6060C94A6060C94A60680
:100050000C94A6060C94B31E0C94A6060C94A6064B
:100060000C94A6060C94A6060C94A6060C94A60660
:100070000C94A6060C94A6060C94A6060C94A60650
:100080000C94A6060C94A6060C94A6060C94A60640
:100090000C94A6060C94A6060C94A6060C94A60630
:1000A0000C94A6060C94A6060C94A606B007B307FB
:1000B000B607B907BC07BF07C207C507C807CB0704
:1000C000CE07D107D407740F960F8110960F8110B9
:1000D000D80FFB0F811050106310261426145414EF
:1000E0005414B014EC144717471704154717FB15A1
:1000F000FB15B716CB1647173517F1A1291E1F2080
:10010000212223242526272D2E2A2B141A081517E1
:100110001C180C12132F302A39041607090A0B0D6C
:100120000E0F3334282BE1641D1B06190511103600
:1001300037385232E0E3E2002CC0C000E6505151A3
:100140004F00013A3B3C3D3E3F4041424344454C19
:100150000101AFAAA901010152010101014C0101F4
:10016000ACB0AB010150514F01010101010101018E
:100170000101010101010101010101010100010170
:1001800001000101010101000A0025303136620041
:100190003A200025303258000A722F632030313265
:1001A000333435363738394142434445460A000A2C
:1001B000002530325800626F756E6365213A200069
:1001C0004B6579626F6172642073746172742E0A78
:1001D0000055534220636F6E666967757265642EC1
:1001E0000A000D0A696E69740A005B445D005B4396
:1001F0005D001E03420061006E0061006E00610040
:10020000530070006C00690074002000360030005C
:1002100000002203540068006500560061006E0073
:1002200020004B006500790062006F0061007200E1
:100230006400730000000403090409028D00050135
:1002400000A032090400000103010100092111018D
:1002500000012240000705810308000A090401008B
:100260000103010200092111010001224D000705CF
:10027000820308000A0904020001030000000921AA
:10028000110100012236000705830308000A090452
:1002900003000203000000092111010001222200D5
:1002A0000705840320000107050403200001090459
:1002B000040001030000000921110100012239009E
:1002C000070585032000011201100100000008AE9F
:1002D000FE708801000102000105010906A1010567
:1002E0000719E029E7150025019508750181020528
:1002F000081901290595057501910295017503916C
:10030000010507190029F71500250195F8750181E8
:1003100002C00631FF0974A1010975150026FF000E
:100320009520750881020976150026FF0095207535
:10033000089102C005010980A101850216810026ED
:10034000B7001A81002AB700751095018100C00519
:100350000C0901A1018503160100269C021A010067
:100360002A9C02751095018100C005010902A101B6
:100370000901A100050919012905150025019505A7
:10038000750181029501750381010501093009316B
:100390001581257F95027508810609381581257F0D
:1003A000950175088106050C0A38021581257F958F
:1003B0000175088106C0C005010906A101050719DC
:1003C000E029E71500250195087501810295017561
:1003D0000881010508190129059505750191029506
:1003E00001750391010507190029FF150026FF007B
:1003F000950675088100C0636F6E73756D65723AFE
:1004000020253034580A0073797374656D3A2025BD
:100410003034580A000A002530325820006B6579C4
:10042000626F6172643A20004C45443A20253032B4
:10043000580A0064656C5F6B65795F6269743A2085
:1004400063616E27742064656C3A20253032580A47
:10045000006164645F6B65795F6269743A2063610F
:100460006E2774206164643A20253032580A006493
:100470006F6E652E0A00626F6F746D61676963202D
:100480007363616E3A202E2E2E2000290A002575F6
:10049000002F002575005D280025640020002564DC
:1004A00000200025640020002564007C00253032F7
:1004B00058006D6F7573656B6579205B62746E7C37
:1004C000782079207620685D287265702F61636CD2
:1004D000293A205B006D6B5F776865656C5F7469B6
:1004E0006D655F746F5F6D6178203D2025640A0043
:1004F0006D6B5F776865656C5F6D61785F73706564
:100500006564203D2025640A006D6B5F74696D652C
:100510005F746F5F6D6178203D2025640A006D6B0C
:100520005F6D61785F7370656564203D2025640AA6
:10053000006D6B5F696E74657276616C203D20257D
:10054000640A006D6B5F64656C6179203D202564F1
:100550000A006D6B5F776865656C5F74696D655FD8
:10056000746F5F6D6178203D2025640A006D6B5FBC
:10057000776865656C5F6D61785F73706565642031
:100580003D2025640A006D6B5F74696D655F746F53
:100590005F6D6178203D2025640A006D6B5F6D61A1
:1005A000785F7370656564203D2025640A006D6B7B
:1005B0005F696E74657276616C203D2025640A0067
:1005C0006D6B5F64656C6179203D2025640A000ACB
:1005D00000257500363A20776865656C5F74696D33
:1005E000655F746F5F6D61783A20000A00257500C1
:1005F000353A20776865656C5F6D61785F7370650B
:1006000065643A20000A00257500343A2074696D4B
:10061000655F746F5F6D61783A20000A0025750090
:10062000333A206D61785F73706565643A20000A23
:1006300000257500323A20696E74657276616C2807
:100640006D73293A20000A00257500313A2064654F
:100650006C6179282A31306D73293A20000A092DFE
:100660002056616C756573202D0A004D3E004D25A6
:10067000643E20003F007365742064656661756C9C
:10068000740A00433E200077686572652064656CDB
:1006900074613A20637572736F723D25642C207704
:1006A0006865656C3D25640A5365652068747470DF
:1006B0003A2F2F656E2E77696B6970656469612EBC
:1006C0006F72672F77696B692F4D6F7573655F6BFD
:1006D0006579730A000A092D204D6F7573656B6586
:1006E00079202D0A4553432F713A09717569740AAF
:1006F000313A0964656C6179282A31306D73290AB1
:10070000323A09696E74657276616C286D73290AD4
:10071000333A096D61785F73706565640A343A092C
:1007200074696D655F746F5F6D61780A353A09773A
:100730006865656C5F6D61785F73706565640A36C6
:100740003A09776865656C5F74696D655F746F5FA2
:100750006D61780A0A703A097072696E7420766168
:100760006C7565730A643A09736574206465666123
:10077000756C74730A75703A092B310A646F776E61
:100780003A092D310A706775703A092B31300A70B9
:1007900067646F776E3A092D31300A0A73706565A8
:1007A00064203D2064656C7461202A206D61785F4F
:1007B0007370656564202A202872657065617420F5
:1007C0002F2074696D655F746F5F6D6178290A0011
:1007D0003F004D3E2000433E20004C25640A000AA5
:1007E000092D20436F6E736F6C65202D0A455343AE
:1007F0002F713A09717569740A6D3A096D6F7573D5
:10080000656B65790A000A092D204D6167696320CF
:100810002D0A643A0964656275670A783A09646565
:10082000627567206D61747269780A6B3A09646554
:10083000627567206B6579626F6172640A6D3A094F
:100840006465627567206D6F7573650A763A09761F
:10085000657273696F6E0A733A09737461747573A4
:100860000A633A09636F6E736F6C65206D6F646520
:100870000A302D343A096C61796572302D3428467E
:1008800031302D4634290A506175733A09626F6F11
:10089000746C6F616465720A653A09656570726FA0
:1008A0006D0A6E3A094E4B524F0A000A0025750038
:1008B0002E6C6576656C3A20000A002575002E6561
:1008C0006E61626C653A20000A0025303258006281
:1008D00061636B6C696768745F636F6E6669672ECE
:1008E0007261773A20000A002575002E6E6B726FD8
:1008F0003A20000A002575002E737761705F6261EF
:10090000636B736C6173685F6261636B7370616367
:10091000653A20000A002575002E737761705F67C5
:10092000726176655F6573633A20000A0025750081
:100930002E6E6F5F6775693A20000A002575002EDC
:10094000737761705F72616C745F726775693A206A
:10095000000A002575002E737761705F6C616C74FE
:100960005F6C6775693A20000A002575002E636187
:1009700070736C6F636B5F746F5F636F6E74726FB5
:100980006C3A20000A002575002E737761705F6352
:100990006F6E74726F6C5F636170736C6F636B3AD0
:1009A00020000A0025303258006B65796D61705F58
:1009B000636F6E6669672E7261773A20000A0025C0
:1009C00075002E6D6F7573653A20000A002575005D
:1009D0002E6B6579626F6172643A20000A0025759A
:1009E000002E6D61747269783A20000A0025750046
:1009F0002E656E61626C653A20000A00253032581F
:100A00000064656275675F636F6E6669672E726109
:100A1000773A20000A0025750064656661756C747C
:100A20005F6C617965723A20003F004E4B524F3A3D
:100A3000206F66660A004E4B524F3A206F6E0A00D6
:100A400074696D65725F72656164333228293A207A
:100A50002530346C580A006B6579626F6172645F8F
:100A60006E6B726F3A2025580A006B6579626F6170
:100A700072645F69646C653A2025580A006B657979
:100A8000626F6172645F70726F746F636F6C3A2033
:100A900025580A00686F73745F6B6579626F6172C5
:100AA000645F6C65647328293A2025580A000A0996
:100AB0002D20537461747573202D0A004743433A07
:100AC00020342E382E31204156522D4C4942433A83
:100AD00020312E382E3073766E204156525F4152AF
:100AE00043483A20617672350A004F5054494F4EC0
:100AF000533A204C55464120424F4F544D414749AF
:100B000043204D4F5553454B45592045585452416C
:100B10004B455920434F4E534F4C4520434F4D4D6D
:100B2000414E44204E4B524F20343039360A004259
:100B300055494C443A20363437663939642D646956
:100B4000727479202830393A34373A30312041757F
:100B5000672031392032303137290A005649443A6A
:100B6000203078464541452854686556616E204BD3
:100B70006579626F6172647329205049443A20306C
:100B800078383837302842616E616E6153706C6915
:100B90007420363029205645523A20307830303093
:100BA000310A00444553433A206B6579626F6172A4
:100BB00064206669726D7761726520666F7220428B
:100BC000616E616E6153706C69742036300A000A80
:100BD000092D2056657273696F6E202D0A000A6D0B
:100BE0006F7573653A206F66660A000A6D6F7573DC
:100BF000653A206F6E0A000A6B6579626F617264F4
:100C00003A206F66660A000A6B6579626F617264EA
:100C10003A206F6E0A000A6D61747269783A206F2B
:100C200066660A000A6D61747269783A206F6E0A0E
:100C3000000A64656275673A206F6E0A000A64658F
:100C40006275673A206F66660A000A0A626F6F74FF
:100C50006C6F616465722E2E2E2000433E2000656D
:100C600065636F6E6669673A0A006261636B6C69FF
:100C700067687420737465703A2025750A00626194
:100C8000636B6C6967687420746F67676C653A2082
:100C900025750A006261636B6C696768742064651E
:100CA0006372656173653A2025750A006261636B42
:100CB0006C6967687420696E6372656173653A2058
:100CC00025750A0011241FBECFEFDAE0DEBFCDBFCD
:100CD00004B603FE24C08091400290914102A0918D
:100CE0004202B09143028730904BA740B04BB9F419
:100CF000109240021092410210924202109243025E
:100D000014BE84B7877F84BF88E10FB6F8948093C0
:100D10006000109260000FBEE0E0F8E3099511E07A
:100D2000A0E0B1E0E0E0F9E502C005900D92A83343
:100D3000B107D9F722E0A8E3B1E001C01D92A034C9
:100D4000B207E1F70E94700B0C947E2C0C9400000B
:100D5000FF93EF93E0913801F0913901309709F05A
:100D60000995EF91FF910895FC018591803011F074
:100D7000EFDFFBCF0895FF27E0E230E247FF0CC032
:100D8000419597FF09C0EDE260957095809590952B
:100D9000611D711D811D911D27FF02C0219530E34A
:100DA00050E2AA27660F771F881F991FAA1FA41752
:100DB00010F0A41B63955A95A9F7AA3008F0A95F13
:100DC000A05DAF93F395611571058105910541F71C
:100DD000ED3211F4EF93F395F21718F43F93F39576
:100DE000FBCF8F91B5DFFA95E1F70895E991F9917D
:100DF0008591803021F0853219F0AADFF9CF08956E
:100E000020E0E89455915532C1F3503311F46894C1
:100E100055915A3348F4505390F3220F022E220F6B
:100E2000220F200D250FF4CF0EF421958991999171
:100E3000533619F3533729F1533559F1BC0188273B
:100E40009927E8945C3621F4899199916894559199
:100E5000543639F446EF7EF077FF0DC08FEF9FEFE9
:100E60000AC055374AE039F0583540E121F0523692
:100E700042E009F00895FF93EF937DDFEF91FF913A
:100E8000B7CFFF93EF93FC0181918030B9F360DF1E
:100E9000FBCFFF93EF9368DFF1CFDF93CF93CDB715
:100EA000DEB72596A3DFCF91DF91089561110DC0C4
:100EB0000E9468172FEF84E39CE02150804090400F
:100EC000E1F700C000000C94D81E089584B1857F1E
:100ED00084B985B1857F85B98AB11AB88BB11BB841
:100EE00080B38C7C80BB81B38C7C81BB089585B73B
:100EF000806885BF85B7806885BF0E94660784B11A
:100F00008A7884B985B1856785B9ECE7F1E0A2E715
:100F1000B1E0119211921D921D9281E0E638F8071E
:100F2000C1F70895DF92EF92FF920F931F93CF9333
:100F3000DF93CAE3D1E0F12CEE24E39485E0D82ED0
:100F400001EB11E08F2D90E0FC013197ED30F105C0
:100F500020F4EA5AFF4F0C94332C859A8D9826C0C2
:100F6000219A299823C0809A889820C0819A8998CC
:100F70001DC0849A8C981AC0239A2B9817C0579A30
:100F80005F9814C0569A5E9811C0549A5C980EC02F
:100F9000559A5D980BC0539A5B9808C0529A5A981C
:100FA00005C0519A599802C0509A589880EA8A957B
:100FB000F1F743B141704E2550E01A9B03C080E029
:100FC00090E002C082E090E0842B952B1C9B03C034
:100FD00040E050E002C044E050E0842B952B1D9B84
:100FE00003C020E030E002C028E030E0822B932BE9
:100FF0001E9B03C020E030E002C020E130E0822BE5
:10100000932B288139812817390741F199838883E7
:1010100080910001882301F18091200280FF04C0AB
:1010200086EB91E00E94B4068091200280FF0CC004
:10103000809100011F928F931F930F930E944D0781
:101040000F900F900F900F908091200280FF04C0AE
:101050008FEA91E00E94B406D09200010E946607D8
:10106000F39422969EE0F9126DCF809100018823BF
:1010700059F0815080930001882369F08FE99FE047
:101080000197F1F700C00000ACE7B1E020E030E0EC
:1010900001E010E00DC0A6E5B1E0EAE3F1E08191E6
:1010A00091918D939D9391E0E635F907C1F7ECCFCF
:1010B000F22EE801022E02C0CC0FDD1F0A94E2F7E7
:1010C000E6E5F1E040E050E060E070E08191919170
:1010D0008C239D230F2C02C0969587950A94E2F7E6
:1010E000042E02C0880F991F0A94E2F7682B792B0F
:1010F0004F5F5F4F4E30510549F76D937D932F5FE2
:101100003F4F25303105A1F681E0DF91CF911F914E
:101110000F91FF90EF90DF900895E82FF0E0EE0F31
:10112000FF1FE458FE4F808191810895CF92DF9296
:10113000EF92FF920F931F93CF93DF9388E991E093
:101140000E94B4063CE7E32E31E0F32EC0E0D0E08D
:1011500043E9C42E41E0D42E0AE811E0DF93CF9397
:10116000DF92CF920E944D0780E991E00E94B40681
:10117000F701819191917F010E94D01D9F938F93E0
:101180001F930F930E944D0788E891E00E94B406D8
:1011900021968DB79EB708960FB6F8949EBF0FBEE6
:1011A0008DBFC530D105D1F6DF91CF911F910F9141
:1011B000FF90EF90DF90CF900895279A882311F049
:1011C0002F9A08952F98089581FF02C0279A01C091
:1011D00027982F9808958091AA0108959FB7F894B1
:1011E000109289019FBF90913502943009F058C048
:1011F0009091E9009F702091EC0020FF02C020E850
:1012000001C020E0292B94E09093E9009091EB003D
:1012100090FF43C09091EE0097FF3FC090918601F0
:10122000992321F09091E80095FF37C01092860134
:1012300096E03091E80035FD15C03091350234302C
:1012400061F53091EB0035FD28C0915021F481E02B
:101250008093860122C0EFE9FFE03197F1F700C0EB
:101260000000E7CF8093F1008091E80085FD0AC07F
:101270008091E80080FFFCCF8091E8008E7780931A
:10128000E80006C08FB7F89491E0909389018FBF72
:101290002F702093E90080E008952F702093E900DB
:1012A0008FEF0895CF93DF9300D01F92CDB7DEB7B5
:1012B00020913502243019F523E029839B838A830A
:1012C0002093E9008FEF9091E800815095FD06C0D2
:1012D00095ED9A95F1F700008111F5CF8091E80026
:1012E00085FF0DC040E050E063E070E0CE01019664
:1012F0000E94300C8091E8008E778093E8000F9078
:101300000F900F90DF91CF910895CF93DF9300D08E
:101310001F92CDB7DEB720913502243021F522E0AF
:1013200029839B838A8383E08093E9008FEF9091E8
:10133000E800815095FD06C095ED9A95F1F7000003
:101340008111F5CF8091E80085FF0DC040E050E0AD
:1013500063E070E0CE0101960E94300C8091E800BD
:101360008E778093E8000F900F900F90DF91CF91D0
:101370000895209135022430F1F422E02093E90011
:101380002FEF3091E800215035FD06C035ED3A953C
:10139000F1F700002111F5CF2091E80025FF0BC0E7
:1013A00040E050E065E070E00E94300C8091E80081
:1013B0008E778093E8000895CF93DF93EC018091BE
:1013C0003502843009F047C080910B018823E1F099
:1013D00080910C018823C1F085E08093E9008FEFB4
:1013E0009091E800815095FD06C095E19A95F1F73E
:1013F00000008111F5CF8091E80085FF2CC040E00E
:1014000050E060E270E017C081E08093E9008FEF68
:101410009091E800815095FD06C095ED9A95F1F701
:1014200000008111F5CF8091E80085FF14C040E0F5
:1014300050E068E070E0CE010E94300C8091E8003E
:101440008E778093E80080E2FE01AAE8B1E0019087
:101450000D928A95E1F7DF91CF9108958EEE91E09C
:101460000E94B40680913402811109C00E94C20D0D
:101470000E941F0E8091E20084608093E200089534
:101480008AEE91E00E94B406109234020895089505
:10149000809187018F5F8093870162E30E94132C04
:1014A000911135C01092870180918901882379F1CB
:1014B00080913502843049F58091E9008F709091D8
:1014C000EC0090FF02C090E801C090E0982B84E00F
:1014D0008093E9008091EB0080FF14C08091EE00C2
:1014E00087FF10C08091E80085FF03C01092F100D3
:1014F000F9CF8091E80080FF05C08091E8008E77E9
:101500008093E8009F709093E900109289010895FC
:1015100042E061EC81E00E943C0D42E061EC82E03F
:101520000E943C0D42E061EC83E00E943C0D42E2EF
:1015300061EC84E00E943C0D42E261EC85E00C9499
:101540003C0D80913702833009F455C030F481306E
:1015500071F0823009F48EC008958A3009F47AC09F
:101560008B3009F460C0893009F09CC020C08091A4
:101570003602813A09F096C08091E800877F809317
:10158000E80080913A0290913B02892B21F060E0C3
:1015900080E090E003C060E28AE891E070E00E94A1
:1015A000790C8091E8008B778093E8000895809112
:1015B0003602813209F076C080913A0290913B0266
:1015C000009719F0049709F06DC08091E800877FBB
:1015D0008093E8008091E80082FD05C0809135028B
:1015E0008111F8CF5FC08091F1008093AA018091B2
:1015F000E8008B7753C080913602813A09F052C0DF
:1016000080913A0290913B02892B09F04BC0809166
:10161000E800877F8093E8008091E80080FFFCCF9E
:1016200080910B0136C0809136028132D9F58091CC
:101630003A0290913B02892BA9F58091E800877FBF
:101640008093E8000E94710D8091380280930B0115
:101650000C94681780913602813221F58091E80060
:10166000877F8093E8000E94710D809139028093FA
:10167000AB01089580913602813AA1F48091E8008F
:10168000877F8093E8008091E80080FFFCCF809105
:10169000AB018093F1008091E8008E778093E800A1
:1016A0000C94710D0895089508958091AA01809376
:1016B00088011092AA0180E00E94E4080E9433127F
:1016C0000C9468170C94550B0E94FF1D80913302F7
:1016D000882329F00E94251E81110C941A0C08956C
:1016E00084B7877F84BF88E10FB6F8948093600049
:1016F000109260000FBE90E080E80FB6F8948093DF
:101700006100909361000FBE8EEE98E00E94B91DBB
:1017100082EE91E00E94B4060E94530B0E94561183
:101720000E94C20D0E941F0E8091E200846080938F
:10173000E2007894809135028430E1F781ED91E008
:101740000E94B4060E94581181E091E00E94991015
:1017500080EC91E00E94B4060E94540B8091350207
:10176000853019F40E94640BF9CF0E946011F6CF06
:101770000E943A1E809188018093AA0108950C94DA
:10178000B80B292F332723303105A9F06CF4213011
:10179000310509F442C02230310509F043C08DE81B
:1017A00090E02AE332E042C021323105C9F0223212
:1017B000310519F137C099278130910541F0823008
:1017C000910541F0892B71F5E6E3F2E005C0E2E115
:1017D000F2E002C0E2EFF1E0849190E09F0126C0C8
:1017E000653000F5E62FF0E0EE0FFF1FEC5DFE4FD9
:1017F0002081318189E090E019C0653098F4E62FAE
:10180000F0E0DF01AA0FBB1FA65EBE4F2D913C91F9
:10181000EB5EFE4F808190E009C082E190E027EC12
:1018200032E004C080E090E020E030E0FA01318353
:101830002083089580E189BD82E189BD09B400FE5D
:10184000FDCF8091D8008F7D8093D8008091E000FB
:1018500082608093E0008091E00081FDFCCF0895DC
:10186000CF92DF92EF92FF920F931F93CF93DF936C
:101870007C018B01EA010E94920D811131C02097F9
:1018800031F088819981081B190BE80EF91EC12CD3
:10189000D12C0115110519F18091E80085FD14C0C6
:1018A0008091E8008E778093E800209741F088814E
:1018B00099818C0D9D1D9983888385E011C00E94BC
:1018C000920D882331F30CC0F70181917F01809341
:1018D000F10001501109FFEFCF1ADF0ADACF80E0E3
:1018E000DF91CF911F910F91FF90EF90DF90CF90FC
:1018F000089520913C0230913D022617370748F0A9
:101900006115710539F42091E8002E772093E800E5
:1019100001C0B901FC0120E061157105B9F18091A8
:101920003502882309F440C0853009F43FC0809116
:10193000E80083FD3DC08091E80082FF06C08091F1
:10194000E80082FF26C080E008958091E80080FFD3
:10195000E3CF2091F3008091F20090E0922B61158B
:10196000710551F08830910538F421912093F100F0
:10197000615071090196F3CF21E0089709F020E04A
:101980008091E8008E778093E800C6CF2111C7CF01
:10199000D6CF80913502882339F0853039F0809197
:1019A000E80083FFCCCF04C082E0089583E008956F
:1019B00081E0089520913C0230913D0226173707BF
:1019C00048F06115710539F42091E8002E772093D5
:1019D000E80001C0B901FC0120E061157105C1F109
:1019E00080913502882309F441C0853009F440C054
:1019F0008091E80083FD3EC08091E80082FF06C030
:101A00008091E80082FF27C080E008958091E8007F
:101A100080FFE3CF2091F3008091F20090E0922BC1
:101A20006115710559F08830910540F42491209397
:101A3000F1003196615071090196F2CF21E00897CB
:101A400009F020E08091E8008E778093E800C5CF10
:101A50002111C6CFD5CF80913502882339F085304A
:101A600039F08091E80083FFCBCF04C082E0089575
:101A700083E0089581E00895982F973058F590936A
:101A8000E900981739F07091EC002091ED00509129
:101A9000F00003C0242F762F50E021FF19C03091B1
:101AA000EB003E7F3093EB003091ED003D7F3093B3
:101AB000ED003091EB0031603093EB007093EC005F
:101AC0002093ED005093F0002091EE0027FF07C017
:101AD0009F5FD3CF8F708093E90081E0089580E00D
:101AE00008958091360287FD05C08091E80080FF4F
:101AF0000EC012C08091E80082FD05C080913502C1
:101B00008111F8CF08958091E8008B7708C080910B
:101B100035028111EACF08958091E8008E77809395
:101B2000E80008958091E4009091E50045E6209159
:101B3000EC0020FF21C02091E80020FD21C0209171
:101B40003502222389F0253089F02091EB0025FD14
:101B50000FC02091E4003091E5002817390739F3D0
:101B6000415041F0C901E3CF82E0089583E0089538
:101B700081E0089584E008952091E80022FFDFCFFE
:101B800080E008950E94300E0E94380EE0EEF0E0F2
:101B9000808181608083E8EDF0E080818F778083B1
:101BA00019BCA7EDB0E08C918E7F8C9380818F7EE5
:101BB00080831092340208950F931F93CF93DF9385
:101BC0000E94300E0E94380EC8EDD0E088818F77D9
:101BD000888388818068888388818F7D888319BC09
:101BE000109235021092310210923302109232029A
:101BF00000EE10E0F80180818B7F80838881816016
:101C0000888342E060E080E00E943C0DE1EEF0E07D
:101C100080818E7F8083E2EEF0E08081816080832E
:101C2000808188608083F80180818E7F80838881B5
:101C300080618883DF91CF911F910F910895E8ED26
:101C4000F0E080818F7E8083E7EDF0E0808181602D
:101C5000808384E082BF81E0809334020C94DC0DA9
:101C6000E8EDF0E080818E7F80831092E20008959D
:101C70001092DA001092E10008951F920F920FB6B1
:101C80000F9211242F933F934F935F936F937F9302
:101C90008F939F93AF93BF93EF93FF938091E10056
:101CA00082FF0BC08091E20082FF07C08091E100BB
:101CB0008B7F8093E1000E94480A8091DA0080FFC8
:101CC0001FC08091D80080FF1BC08091DA008E7FFA
:101CD0008093DA008091D90080FF0DC080E189BD3A
:101CE00082E189BD09B400FEFDCF81E08093350219
:101CF0000E942E0A05C019BC109235020E94400AAB
:101D00008091E10080FF19C08091E20080FF15C042
:101D10008091E2008E7F8093E2008091E2008061FA
:101D20008093E2008091D80080628093D80019BC33
:101D300085E0809335020E94620B8091E10084FF70
:101D400030C08091E20084FF2CC080E189BD82E137
:101D500089BD09B400FEFDCF8091D8008F7D8093AE
:101D6000D8008091E1008F7E8093E1008091E200B5
:101D70008F7E8093E2008091E20081608093E20098
:101D800080913102882311F084E007C08091E30044
:101D900087FF02C083E001C081E0809335020E948A
:101DA000BF0B8091E10083FF29C08091E20083FF97
:101DB00025C08091E100877F8093E10082E08093DD
:101DC0003502109231028091E1008E7F8093E10014
:101DD0008091E2008E7F8093E2008091E20080613A
:101DE0008093E20042E060E080E00E943C0D809140
:101DF000F00088608093F0000E94470AFF91EF9105
:101E0000BF91AF919F918F917F916F915F914F9112
:101E10003F912F910F900FBE0F901F9018951F921A
:101E20000F920FB60F9211242F933F934F935F930E
:101E30006F937F938F939F93AF93BF93CF93EF93C2
:101E4000FF93C091E900CF708091EC001092E900FF
:101E50008091F000877F8093F00078940E944B0F70
:101E60001092E9008091F00088608093F000C093A8
:101E7000E900FF91EF91CF91BF91AF919F918F9129
:101E80007F916F915F914F913F912F910F900FBE76
:101E90000F901F9018951F93CF93DF93CDB7DEB7A8
:101EA000AA970FB6F894DEBF0FBECDBFE6E3F2E00F
:101EB0008091F100819322E0EE33F207C9F70E948E
:101EC000A10A8091E80083FF1CC120913602309165
:101ED0003702832F90E08A30910508F012C1FC018F
:101EE000ED59FF4F0C94332C203881F0223809F043
:101EF00008C180913A028F708093E9008091EB00D5
:101F000085FB882780F91092E90006C08091320293
:101F100090913302911182609091E800977F9093A5
:101F2000E8008093F1001092F100C5C0822F8D7FF0
:101F300009F0E7C0222319F0223061F0E2C080915D
:101F40003802813009F0DDC0333009F080E0809341
:101F5000330228C080913802811124C020913A02B6
:101F60002F7009F4CEC02093E9008091EB0080FF30
:101F700019C08091EB00333011F4806211C0806190
:101F80008093EB0081E090E0022E01C0880F0A945C
:101F9000EAF78093EA001092EA008091EB008860F3
:101FA0008093EB001092E9008091E800877F86C063
:101FB0002111A7C0109138021F778091E30080782B
:101FC000812B8093E3008091E800877F8093E80075
:101FD0000E94710D8091E80080FFFCCF8091E300AA
:101FE00080688093E300112311F083E001C082E058
:101FF0008093350286C02058223008F082C080913C
:102000003802909139028C3D23E0920779F583E004
:102010008A838AE289834FB7F894DE01139620E021
:102020003EE051E2E32FF0E050935700E49120FFAF
:1020300003C0E295EF703F5FEF708E2F90E0EA30C3
:1020400010F0C79601C0C0968D939D932F5F2431E9
:1020500049F74FBF8091E800877F8093E8006AE2EC
:1020600070E0CE0101960E94790C14C0AE014F5F62
:102070005F4F60913A020E94C10B009709F441C082
:102080002091E800277F2093E800BC0189819A8194
:102090000E94DA0C8091E8008B778093E80031C0D1
:1020A000203879F58091E800877F8093E80080915F
:1020B00031028093F1008091E8008E778093E800F0
:1020C0000E94710D1EC021111CC0909138029230E7
:1020D000C0F48091E800877F8093E80090933102FC
:1020E0000E94710D80913102811104C08091E30042
:1020F00087FF02C084E001C081E0809335020E9426
:10210000880A8091E80083FF0AC08091E800877FF9
:102110008093E8008091EB0080628093EB00AA96A8
:102120000FB6F894DEBF0FBECDBFDF91CF911F91E8
:1021300008959093B1018093B0010895E091B001AA
:10214000F091B101309721F00190F081E02D0994D8
:1021500080E00895FF920F931F93CF93DF938C013C
:10216000E091B001F091B101309799F10280F381D3
:10217000E02D09958091200282FF2BC080FF04C0D2
:102180008DE194E00E94B406E80180E2F82E07E1B8
:1021900014E08091200280FF0BC088811F928F93F2
:1021A0001F930F930E944D070F900F900F900F9069
:1021B000FA942196F110EDCF8091200280FF09C0A2
:1021C00085E194E0DF91CF911F910F91FF900C94E6
:1021D000B406DF91CF911F910F91FF900895E09188
:1021E000B001F091B101309721F00480F581E02D2C
:1021F00009940895CF93DF93EC018091AE01909103
:10220000AF01C817D90709F1D093AF01C093AE0150
:10221000E091B001F091B1013097B9F00680F781FB
:10222000E02DCE0109958091200282FF0EC080FF33
:102230000CC0DF93CF9387E094E09F938F930E942D
:102240004D070F900F900F900F90DF91CF91089551
:10225000CF93DF93EC018091AC019091AD01C81751
:10226000D90709F1D093AD01C093AC01E091B00161
:10227000F091B1013097B9F00084F185E02DCE01E5
:1022800009958091200282FF0EC080FF0CC0DF9371
:10229000CF9387EF93E09F938F930E944D070F900A
:1022A0000F900F900F90DF91CF9108950C943412FE
:1022B0000E94691E0E9477070E9477200C94132ABF
:1022C0005F926F927F928F929F92AF92BF92CF92C6
:1022D000DF92EF92FF920F931F93CF93DF9300D083
:1022E00000D01F92CDB7DEB70E94920793EBC92EA4
:1022F00091E0D92E00E010E0AA24A394B12C502E36
:10230000802F0E948D083C01F601E190F1906F0151
:10231000E826F926E114F104B1F40F5F1F4F0530F0
:10232000110569F78FEF89838A831B820E94721ED1
:102330008160782F9D838C8349815A816B818D8147
:102340000E94371241C08091200281FD0E949608B0
:1023500020E030E04501022E02C0880C991C0A944E
:10236000E2F7C4018E219F21892B41F129835A82F2
:102370006820792081E0672809F480E08B830E943F
:10238000721E8160782F9D838C8349815A816B8175
:102390008D810E94371249815A816B817C818D81A8
:1023A0000E94EB1DF801EE0FFF1FED54FE4F8081E0
:1023B0009181882599259183808306C02F5F3F4FA7
:1023C0002E30310539F6A9CF0E94EA1D0E940C2457
:1023D0001091B2010E949E10181771F10E949E1078
:1023E0008093B2019091200292FF0EC090FF0CC02A
:1023F0001F928F9388E294E09F938F930E944D07E2
:102400000F900F900F900F908091B2010F900F904E
:102410000F900F900F90DF91CF911F910F91FF9030
:10242000EF90DF90CF90BF90AF909F908F907F9074
:102430006F905F900C94FC1D0F900F900F900F9079
:102440000F90DF91CF911F910F91FF90EF90DF9050
:10245000CF90BF90AF909F908F907F906F905F9044
:1024600008950C94E4080895089508950895CF936D
:10247000DF93CDB7DEB72B970FB6F894DEBF0FBE54
:10248000CDBF4F83588769877A878B878A859B85DD
:10249000892B31F05F3F11F080E003C04F3FE1F73F
:1024A00081E0811107C04F81588569857A858B85C8
:1024B0000E94EB1DDE01119686E0FD0111928A95C6
:1024C000E9F785E0FE01379601900D928A95E1F7D4
:1024D00049815A816B817C818D819E810E94341A51
:1024E0002B960FB6F894DEBF0FBECDBFDF91CF9114
:1024F0000895CF93C82F882309F4E7C08238A1F448
:102500000E949E1081FDE1C089E30E94B11C0E94DF
:10251000931D2FEF81EE94E0215080409040E1F731
:1025200000C0000089E315C08338C1F40E949E10EA
:1025300080FDCBC083E50E94B11C0E94931D2FEF4C
:1025400081EE94E0215080409040E1F700C000000F
:1025500083E50E94021DCF910C94931D8438A1F451
:102560000E949E1082FDB1C087E40E94B11C0E94AF
:10257000931D2FEF81EE94E0215080409040E1F7D1
:1025800000C0000087E4E5CF8CEF8C0F813A48F45F
:102590008C2F0E94C128811198C08C2F0E94B11CE1
:1025A000DACF80E28C0F883048F4C77081E001C038
:1025B000880FCA95EAF70E94571DCDCF8BE58C0F87
:1025C000833078F4C53A29F0C63A31F482E890E0D5
:1025D00005C081E890E002C083E890E0CF910C94C0
:1025E000FA1088E58C0F853108F06FC0C83A61F1A8
:1025F000C93A69F1CA3A71F1CB3A79F1CC3A81F131
:10260000CD3A89F1CE3A91F1CF3A99F1C13BA1F19E
:10261000C03BA9F1C23BB1F1C33BB9F1C43BC1F12D
:10262000C53BC9F1C63BD1F1C73BD9F1C83BE1F18C
:10263000C93BE9F1CA3BF1F1CB3BF9F1CC3B09F0E5
:102640003FC08AE292E03EC082EE90E03BC089EE5D
:1026500090E038C08AEE90E035C085EB90E032C063
:1026600086EB90E02FC083EB90E02CC084EB90E0F1
:1026700029C087EB90E026C08CEC90E023C08DEC65
:1026800090E020C083E891E01DC08AE891E01AC084
:1026900082E991E017C084E991E014C081E292E000
:1026A00011C083E292E00EC084E292E00BC085E2AA
:1026B00092E008C086E292E005C087E292E002C0A4
:1026C00080E090E0CF910C942811CF910895882359
:1026D00009F466C08238A1F40E949E1081FF60C098
:1026E00089E30E94B11C0E94931D2FEF81EE94E0BC
:1026F000215080409040E1F700C0000089E315C000
:102700008338B9F40E949E1080FF4AC083E50E947E
:10271000B11C0E94931D2FEF81EE94E02150804068
:102720009040E1F700C0000083E50E94021D0C9478
:10273000931D8438A1F40E949E1082FF31C087E46B
:102740000E94B11C0E94931D2FEF81EE94E0215056
:1027500080409040E1F700C0000087E4E6CF9CEFA6
:10276000980F913A10F390E2980F983050F48770D8
:1027700091E001C0990F8A95EAF7892F0E945D1DAB
:10278000D6CF9BE5980F933020F480E090E00C9436
:10279000FA10885A853120F480E090E00C942811DA
:1027A0000895882321F00E94571D0C94931D0895CD
:1027B000882321F00E945D1D0C94931D0895CF92F3
:1027C000DF92EF92FF920F931F93CF93DF93CDB7DA
:1027D000DEB728970FB6F894DEBF0FBECDBF8C01D1
:1027E00085E0F801DE01119601900D928A95E1F7DE
:1027F000F80140813181F280258122952F708381FB
:102800009481892B31F03F3F31F481E04F3F19F43F
:1028100003C081E001C080E080FD39C349833A8371
:1028200089819A812F830E946F1C9E8388870E94D2
:102830006E1C0E94961B4E81E42FE295EF70F0E033
:10284000E359FF4F2F8168850C94332C842F807FB0
:10285000142F1F70882311F01295107FFF2059F05C
:10286000112309F45FC2812F68870E946A1D0E94AC
:10287000931D688557C2862F0E946713112309F4A0
:1028800006C3812F0E94701D28960FB6F894DEBFF4
:102890000FBECDBFDF91CF911F910F91FF90EF90B1
:1028A000DF90CF900C94931D842F807F942F9F7086
:1028B000E92E803219F0E29480EFE822662319F0C5
:1028C000613001F129C0FF20A9F08E2D222349F1AA
:1028D000213039F528960FB6F894DEBF0FBECDBF74
:1028E000DF91CF911F910F91FF90EF90DF90CF90EC
:1028F0000C947A1D222319F0213009F4C8C20E94D9
:102900007D1D2CC0FF20E9F0263008F0C0C20E94D7
:10291000541D8E2129F022C0FF20F1F0211115C095
:102920008E2D28960FB6F894DEBF0FBECDBFDF9177
:10293000CF911F910F91FF90EF90DF90CF900C946B
:10294000D113253008F0A3C209C0F801858180FFAA
:10295000E9C18F708583E4CF2111F8C18E2D66C146
:10296000242F26952695237030E02115310521F07E
:1029700021303105C9F08BC2FF2021F0862F942F22
:10298000937002C080E090E028960FB6F894DEBF06
:102990000FBECDBFDF91CF911F910F91FF90EF90B0
:1029A000DF90CF900C94FA10FF2021F0862F942F07
:1029B000937002C080E090E028960FB6F894DEBFD6
:1029C0000FBECDBFDF91CF911F910F91FF90EF9080
:1029D000DF90CF900C942811862FFF2019F00E94D1
:1029E000922202C00E94FA2228960FB6F894DEBF07
:1029F0000FBECDBFDF91CF911F910F91FF90EF9050
:102A0000DF90CF900C947F23842F837009F076C0E1
:102A1000F1103DC2262F229526952770220F220FF6
:102A2000862F8F70C82ED12CE12CF12C022E04C0E1
:102A3000CC0CDD1CEE1CFF1C0A94D2F764FF10C006
:102A40006FE070E080E090E004C0660F771F881FA1
:102A5000991F2A95D2F7609570958095909503C03F
:102A600060E070E0CB01242F269526952370422F3D
:102A700050E042305105D1F04330510559F16C29F5
:102A80007D298E299F294130510541F128960FB6A5
:102A9000F894DEBF0FBECDBFDF91CF911F910F9194
:102AA000FF90EF90DF90CF900C94AB1B6C297D29A9
:102AB0008E299F2928960FB6F894DEBF0FBECDBF92
:102AC000DF91CF911F910F91FF90EF90DF90CF900A
:102AD0000C94BD1B0E94AB1BC701B60128960FB614
:102AE000F894DEBF0FBECDBFDF91CF911F910F9144
:102AF000FF90EF90DF90CF900C94991BFF2019F07E
:102B0000842F817001C08695882309F4C0C1262FC7
:102B1000229526952770220F220F862F8F70C82EA0
:102B2000D12CE12CF12C022E04C0CC0CDD1CEE1CAF
:102B3000FF1C0A94D2F764FF10C06FE070E080E0E1
:102B400090E004C0660F771F881F991F2A95D2F75F
:102B5000609570958095909503C060E070E0CB0122
:102B6000242F269526952370422F50E042305105A0
:102B7000D1F04330510559F16C297D298E299F29C7
:102B80004130510541F128960FB6F894DEBF0FBED3
:102B9000CDBFDF91CF911F910F91FF90EF90DF900C
:102BA000CF900C944A1C6C297D298E299F29289648
:102BB0000FB6F894DEBF0FBECDBFDF91CF911F914E
:102BC0000F91FF90EF90DF90CF900C945C1C0E94CF
:102BD0004A1CC701B60128960FB6F894DEBF0FBE97
:102BE000CDBFDF91CF911F910F91FF90EF90DF90BC
:102BF000CF900C94381C603F49F118F4603E48F4C3
:102C00008CC0623F09F451C0E0F1633F09F461C038
:102C100084C0162F1F70842F8F71FF2021F00E9417
:102C2000E31B812F7ECE0E94FE1B812F28960FB6BC
:102C3000F894DEBF0FBECDBFDF91CF911F910F91F2
:102C4000FF90EF90DF90CF900C94D813FF20A9F065
:102C5000253008F01CC1842F8F7128960FB6F89488
:102C6000DEBF0FBECDBFDF91CF911F910F91FF90BF
:102C7000EF90DF90CF900C941D1C263008F007C118
:102C8000EACFFF20A1F0842F8F7128960FB6F89419
:102C9000DEBF0FBECDBFDF91CF911F910F91FF908F
:102CA000EF90DF90CF900C94E31BFF2061F3842F13
:102CB0008F7128960FB6F894DEBF0FBECDBFDF919F
:102CC000CF911F910F91FF90EF90DF90CF900C94D8
:102CD000FE1BFF2091F0842F8F7128960FB6F89479
:102CE000DEBF0FBECDBFDF91CF911F910F91FF903F
:102CF000EF90DF90CF900C94D41B28960FB6F894E9
:102D0000DEBF0FBECDBFDF91CF911F910F91FF901E
:102D1000EF90DF90CF900C94CF1BFF20A1F02223E7
:102D200009F4B1CF862F28960FB6F894DEBF0FBEF8
:102D3000CDBFDF91CF911F910F91FF90EF90DF906A
:102D4000CF900C947912222309F4B1CF862F2896C4
:102D50000FB6F894DEBF0FBECDBFDF91CF911F91AC
:102D60000F91FF90EF90DF90CF900C9467134F700E
:102D7000C8010E948F1F28960FB6F894DEBF0FBEC1
:102D8000CDBFDF91CF911F910F91FF90EF90DF901A
:102D9000CF900C94E11AF1107AC0942F9F70492FB4
:102DA00050E04230510509F440C0BCF441155105D2
:102DB00061F14130510509F06AC028960FB6F894C8
:102DC000DEBF0FBECDBFDF91CF911F910F91FF905E
:102DD000EF90DF90CF900C94482A43305105A9F131
:102DE0004430510509F053C0862F28960FB6F89449
:102DF000DEBF0FBECDBFDF91CF911F910F91FF902E
:102E0000EF90DF90CF900C94D52A28960FB6F894C7
:102E1000DEBF0FBECDBFDF91CF911F910F91FF900D
:102E2000EF90DF90CF900C94242A28960FB6F89458
:102E3000DEBF0FBECDBFDF91CF911F910F91FF90ED
:102E4000EF90DF90CF900C94772A28960FB6F894E5
:102E5000DEBF0FBECDBFDF91CF911F910F91FF90CD
:102E6000EF90DF90CF900C949D2A4F70C801289668
:102E70000FB6F894DEBF0FBECDBFDF91CF911F918B
:102E80000F91FF90EF90DF90CF900C94560728960B
:102E90000FB6F894DEBF0FBECDBFDF91CF911F916B
:102EA0000F91FF90EF90DF90CF9008950E94771DD3
:102EB0000E94461D0E94931D0E94AD240E947F2304
:102EC00080E090E00E94FA1080E090E00C942811DD
:102ED0000E94671D0C9456170E946F1C292F229583
:102EE0002F7030E02C3031054CF42A3031056CF471
:102EF000225031092230310590F407C02C303105C1
:102F000051F02F30310539F00AC0803E10F0803F7B
:102F100031F481E0089593FB882780F9089580E0DB
:102F20000895CF93DF9300D000D01F92CDB7DEB7C6
:102F30000F900F900F900F900F90DF91CF91089509
:102F4000CF93DF9300D000D000D0CDB7DEB7269668
:102F50000FB6F894DEBF0FBECDBFDF91CF910895BD
:102F60001F93CF93DF93C091BD0116E08091BE0106
:102F7000C81799F0D0E01C9FF0011D9FF00D11249F
:102F8000E154FE4F4081518162817381848195813A
:102F90000E94A0172196C770E9CFDF91CF911F91B2
:102FA00008954091EF015091F0016091F10170910D
:102FB000F2018091F3019091F4010C94A017CF934A
:102FC0008091F40182958F7009F05FC08091F101CA
:102FD000882309F45AC02091BD01A091BE016091DF
:102FE000EF017091F0018091F2019091F30131E0D5
:102FF0006F3F09F030E0B32FC6E02A1709F445C04F
:10300000009721F07F3F21F44B2F03C041E001C026
:1030100040E030E040FD35C0C29FF001C39FF00D9D
:103020001124E154FE4F418174132BC0408164137D
:1030300028C04281411125C0438154814817590756
:1030400010F441505109481B590B4F3A5105C8F42F
:103050008091F4018F7080618093F40186E0829FFB
:10306000F001839FF00D1124EC53FE4F80818F708F
:10307000806180838FEE91E00E94DF13CF910C94EA
:10308000B0172F5F3F4F2770B8CFCF910895CF92E1
:10309000DF92EF92FF920F931F93CF93DF93CDB701
:1030A000DEB762970FB6F894DEBF0FBECDBF8C01BE
:1030B00085E0F801DE011D9601900D928A95E1F7F9
:1030C000D8014C9111965C91119712966C911297C0
:1030D0001396ED90FC9014977091EF01E091F00140
:1030E0002091F2013091F3012115310531F0EF3FCC
:1030F00031F481E07F3F19F403C081E001C080E03A
:10310000B82FB170CB2E80FD6CC1D090F101DD20C5
:1031100009F4F5C0F091F401E216F30638F0C701A6
:10312000821B930B8F3A910548F09BC020953095F8
:103130002E0D3F1D2F3A310508F093C08F2F807F51
:1031400009F052C0E51314C0741312C0D62E6111D9
:103150000FC0FF70F061F093F4010E94D1178FEE61
:1031600091E00E94DF138091F401F80185836CC126
:10317000EF2831F05F3F31F481E04F3F19F403C095
:1031800081E001C080E080FD03C081E0862701C0AE
:1031900080E0F82FF170FF2E80FF1CC08091BD01F0
:1031A0002091BE0136E0821709F428C190E0389FD3
:1031B000F001399FF00D1124E154FE4F7181571336
:1031C00006C07081471303C07281671303C0019664
:1031D0008770E9CFD62E662309F436C18091F401B9
:1031E00081608093F40153C0E51308C0741306C0D6
:1031F000611104C0D8011596FC93AEC04D875E875F
:103200008D859E856A8B0E946C176A89882329F1B7
:10321000D62E662311F12091F401822F82958F70B2
:1032200090E002970CF460C08091EF019091F00162
:1032300098878F831986FB86EA862C87CE010796AE
:1032400051C0E51731F14D875E878D859E856A8B6C
:103250000E946C176A8981112EC0C8010E94DF1379
:10326000A4C08F2F807F69F77E2DF98AE88A89892B
:103270000E9491178FEE91E00E94DF13EFEEF1E0D4
:1032800086E0DF011D928A95E9F70E94D117D12CC3
:10329000DBC07413D8CF6111D6CFD8011596FC933B
:1032A000C8010E94DF13EFEEF1E086E0DF011D921E
:1032B0008A95E9F7C9C0D62E662379F22091F401E8
:1032C000822F82958F7090E0029774F08091EF01C9
:1032D0009091F0019A8389831B82FD82EC822E8378
:1032E000CE0101960E94DF1386E0F801AFEEB1E057
:1032F00001900D928A95E1F70E94DF176FC0E216E8
:10330000F30628F0C701821B930B9C0104C0209593
:1033100030952E0D3F1D2F3A310508F052C0D62EA4
:10332000662309F49ACFE5132CC074132AC0809148
:10333000F40180FD1DC0982F92959F70C9F0D801AF
:1033400015968C9315979F3039F09F5F9295907FDB
:103350008F70892B15968C93C8010E94DF1386E02D
:10336000F801AFEEB1E001900D928A95E1F736C019
:1033700086E0F801AFEEB1E001900D928A95E1F799
:1033800063C04D875E878D859E850E946C1788235C
:1033900079F086E0F801AFEEB1E001900D928A95E8
:1033A000E1F70E94DF170E94D117DD24D3944CC0AF
:1033B0008091F40181608093F401C8010E94DF13C1
:1033C00043C07E2DF98AE88A89890E949117EFEE21
:1033D000F1E086E0DF011D928A95E9F70E94D1179E
:1033E00033C0662309F439CF4D875E878D859E856E
:1033F0000E946C17882309F430CFCBCF4D875E87AE
:103400008D859E850E946F1C292F22952F7030E09C
:10341000223031052CF49F7041F0811106C00CC0A0
:10342000243031052CF49F7049F4805E883020F000
:10343000C8010E94DF13CF2CDC2C06C0D8011596E2
:103440009C91907F91F7F8CF8D2D62960FB6F894EE
:10345000DEBF0FBECDBFDF91CF911F910F91FF90C7
:10346000EF90DF90CF9008951F93CF93DF93CDB768
:10347000DEB72C970FB6F894DEBF0FBECDBF4F83DB
:10348000588769877A878B879C87CE0107960E9429
:1034900047188823C1F02F8138858A859B85892B21
:1034A00031F03F3F11F080E003C02F3FE1F781E0B2
:1034B000811147C04F81588569857A858B859C85A8
:1034C0000E94A0173EC086E0FE013796DE011196ED
:1034D00001900D928A95E1F7FF81E8854A855B8529
:1034E0004115510531F0EF3F31F481E0FF3F19F410
:1034F00003C081E001C080E080FD23C02091BE01B7
:1035000030E0C9010196877099276091BD0170E094
:1035100086179707F1F1F983EA835D834C8396E080
:10352000929FD001939FB00D1124A154BE4FFE0174
:10353000319601900D929A95E1F78093BE010E9419
:10354000B01716E08091BD019091BE01891779F105
:10355000189FC001112481549E4F0E944718882350
:1035600031F1E091BD011E9FF0011124E154FE4FA5
:103570004081518162817381848195810E94A0176D
:103580008091BD0190E00196877099278093BD01DD
:10359000D9CF0E9468171092BE011092BD01EFEEC4
:1035A000F1E086E0DF011D928A95E9F7CACF2C96FB
:1035B0000FB6F894DEBF0FBECDBFDF91CF911F9144
:1035C0000895DF92EF92FF920F931F93CF93DF93B3
:1035D000FC01009709F48AC0E12CF12CDD24D3947E
:1035E000EF0121968491853709F461C058F484373E
:1035F00008F04EC0843008F06AC08130D1F08230CB
:1036000071F174C0883709F45DC050F4863709F44D
:1036100055C0873709F06AC08E2D0E94641D54C0C2
:103620009CE7980F903708F061C08F770E9467136E
:1036300050C08F010E5F1F4FFE01849190E2980FE2
:10364000983050F48770FD2D01C0FF0F8A95EAF77E
:103650008F2F0E946A1D15C00E94791214C08F011D
:103660000E5F1F4FFE01849190E2980F983068F42E
:103670008770FD2D01C0FF0F8A95EAF78F2F0E94FA
:10368000701D0E94931DE80124C00E946713FBCFA8
:103690009F012E5F3F4FFE01C491CC2369F08FE95B
:1036A0009FE00197F1F700C00000C150F6CF9F01E5
:1036B0002E5F3F4FFE01F490E9010BC00E94541DA4
:1036C000E82E07C00E94671D0E94931D02C00E9441
:1036D00079129F2D992341F0EFE9FFE03197F1F73F
:1036E00000C000009150F6CFFE017ACFDF91CF915C
:1036F0001F910F91FF90EF90DF9008956093F90173
:103700007093FA018093FB019093FC010E94FA1DD3
:103710000C9456176093F5017093F6018093F701AE
:103720009093F8010E94FB1D0C94561708950C9479
:103730007E1B0F931F930091F9011091FA012091C4
:10374000FB013091FC01602B712B822B932B1F917D
:103750000F910C947E1B0F931F930091F901109110
:10376000FA012091FB013091FC0160237123822337
:1037700093231F910F910C947E1B0F931F93009125
:10378000F9011091FA012091FB013091FC016027B1
:103790007127822793271F910F910C947E1B60E065
:1037A00070E0CB010C948A1B41E050E060E070E0D7
:1037B00004C0440F551F661F771F8A95D2F7CB01AF
:1037C000BA010C948A1B41E050E060E070E004C054
:1037D000440F551F661F771F8A95D2F78091F50118
:1037E0009091F601A091F701B091F801482B592B67
:1037F0006A2B7B2BCB01BA010C948A1B41E050E071
:1038000060E070E004C0440F551F661F771F8A9563
:10381000D2F740955095609570958091F501909103
:10382000F601A091F701B091F801482359236A23CA
:103830007B23CB01BA010C948A1B41E050E060E08D
:1038400070E004C0440F551F661F771F8A95D2F79A
:103850008091F5019091F601A091F701B091F801E6
:10386000482759276A277B27CB01BA010C948A1B6A
:103870000F931F930091F5011091F6012091F7012C
:103880003091F801602B712B822B932B1F910F919C
:103890000C948A1B0F931F930091F5011091F60170
:1038A0002091F7013091F801602371238223932343
:1038B0001F910F910C948A1B0F931F930091F50198
:1038C0001091F6012091F7013091F80160277127DE
:1038D000822793271F910F910C948A1B0895CF92F2
:1038E000DF92EF92FF920F931F93CF93DF93EC0140
:1038F000C090F901D090FA01E090FB01F090FC013A
:103900008091F5019091F601A091F701B091F80135
:10391000C82AD92AEA2AFB2A0FE110E0B701A6013A
:10392000002E04C076956795579547950A94D2F76F
:1039300040FF07C0BE01802F0E94AA1F8130910561
:1039400039F40150110950F7BE0180E00E94AA1F0E
:10395000DF91CF911F910F91FF90EF90DF90CF906B
:10396000089590910B01992361F190910C01992395
:1039700041F1982F9695969596959F3188F4E09110
:103980000D01F0910E01E90FF11D877021E030E08B
:1039900001C0220F8A95EAF78181822B81830895E5
:1039A0009091200290FF2DC01F928F9381E594E0AB
:1039B0009F938F930E944D070F900F900F900F9041
:1039C000089540910D0150910E0120E030E09FEFED
:1039D000FA01E20FF31F6281681799F09F3F19F413
:1039E000611101C0922F2F5F3F4F2E31310581F7BA
:1039F0009F3F39F0FA01E90FF11D97FDFA95828397
:103A00000895089590910B01992369F190910C010B
:103A1000992349F1982F9695969596959F3190F414
:103A2000E0910D01F0910E01E90FF11D877021E089
:103A300030E001C0220F8A95EAF720958181282382
:103A4000218308959091200290FF1FC01F928F93B1
:103A500083E394E09F938F930E944D070F900F9004
:103A60000F900F90089540910D0150910E0120E0AC
:103A700030E0FA01E20FF31F9281981301C0128225
:103A80002F5F3F4F2E313105A1F7089581E090E07F
:103A9000E0910D01F0910E01E80FF91F10820196DF
:103AA00080329105A9F7089580911F0208959091A1
:103AB0001F02982B90931F020895809590911F02EA
:103AC000982390931F02089580931F0208951092E7
:103AD0001F02089590911E02982B90931E02089544
:103AE000809590911E02982390931E020895109243
:103AF0001E0208958093FD0108951092FD0108951E
:103B000040910D0150910E0120E030E080E0FA017B
:103B1000E20FF31F918191118F5F2F5F3F4F2F3184
:103B20003105A9F70895E0910D01F0910E01809102
:103B30001F028083E0910D01F0910E018081909130
:103B40001E02892B80839091FD01992361F0E09101
:103B50000D01F0910E018081892B80830E94801DD0
:103B600081111092FD0180910D0190910E010C9434
:103B7000AA10909339018093380108958295982F67
:103B80009C7C96959695837344E0849F90011124C4
:103B9000922B892F8A7A86959575990F892B08958E
:103BA0001F93CF93DF931F92CDB7DEB799830E9407
:103BB000BE1D182F9981892F0E94BE1D212F30E034
:103BC000322F2227A901482BCA010F90DF91CF91F4
:103BD0001F9108950895CF93DF9300D000D01F92D6
:103BE000CDB7DEB70F900F900F900F900F90DF9131
:103BF000CF910895089508950C94311208958091FD
:103C00003502843009F11092210220E488E190E02D
:103C10000FB6F894A895809360000FBE20936000C3
:103C200083B7817F846083BF83B7816083BF7894CB
:103C3000889583B78E7F83BF88E10FB6F894809311
:103C40006000109260000FBE0895CF930E9435125D
:103C50000E9492070E943612C0E08C2F0E948D08AD
:103C6000892B29F4CF5FC530C1F780E001C081E026
:103C7000CF9108950E9433120E9468170C94132A62
:103C80001F920F920FB60F9211248F939F93AF93B1
:103C9000BF9380912102811113C0809122029091E3
:103CA0002302A0912402B09125024196A11DB11DCD
:103CB0008093220290932302A0932402B0932502C2
:103CC000BF91AF919F918F910F900FBE0F901F905A
:103CD000189582E084BD93E095BD9AEF97BD8093DF
:103CE0006E0008952FB7F8948091220290912302DC
:103CF000A0912402B09125022FBF08952FB7F89408
:103D000060912202709123028091240290912502F9
:103D10002FBF0895CF92DF92EF92FF920F931F93E0
:103D20002FB7F8944091220250912302609124020F
:103D3000709125022FBF6A017B01EE24FF248C01C4
:103D400020E030E0C016D106E206F30610F4415040
:103D50005109481B590BCA011F910F91FF90EF9019
:103D6000DF90CF9008951F920F920FB60F921124FB
:103D70008F939F93AF93BF938091220290912302E0
:103D8000A0912402B09125020196A11DB11D80933E
:103D9000220290932302A0932402B0932502BF91A4
:103DA000AF919F918F910F900FBE0F901F9018951C
:103DB0000E94C20DF8942FEF87EA91E621508040CF
:103DC0009040E1F700C0000087E090EBDC018093B9
:103DD000400290934102A0934202B09343022CE030
:103DE00088E190E00FB6F894A895809360000FBE2C
:103DF00020936000FFCF8D3B60F4883A90F5853AC0
:103E000028F5843008F5813009F086C081E090E023
:103E10000895883E98F4803EB8F48F3B09F07CC04A
:103E20000E9468172FEF80E792E021508040904079
:103E3000E1F700C000000E94D81E6EC0803F08F469
:103E40006BC090E09065089590E00895853A21F068
:103E5000863A21F432E803C031E801C033E820E4B7
:103E600058C0883A51F1893A51F18A3A51F18B3A66
:103E700051F18C3A51F18D3A51F18E3A51F18F3A1C
:103E800051F1813B51F1803B51F1823B51F1833B38
:103E900051F1843B51F1853B51F1863B59F1873B10
:103EA00059F1883B59F1893B59F18A3B59F18B3BD8
:103EB00061F18C3B61F53AE226C032EE29C039EE61
:103EC00027C03AEE25C035EB23C036EB21C033EBDB
:103ED0001FC034EB1DC037EB1BC03CEC19C03DECE0
:103EE00017C033E805C03AE803C032E901C034E93D
:103EF00025E40FC031E207C033E205C034E203C05D
:103F000035E201C036E226E404C037E2FCCF30E0FF
:103F100024E4832F922F089580E090E0089580E0BC
:103F200090E008959EE0799FF001112496E4899F26
:103F3000E00DF11D1124E60FF11DE450FF4F8491B7
:103F40000895E82FF0E0EE0FFF1FE658F04085914E
:103F5000949108950E94921F803EA8F4803C00F541
:103F6000813309F45CC038F4893209F452C08A32D2
:103F700009F45BC05FC08933B1F08238A1F08533AA
:103F800009F441C057C0833E41F128F4803E99F0C6
:103F9000823EB9F04FC0863E31F1873E71F14AC092
:103FA0000E94A11F089590913E0290FD02C091FFD2
:103FB00041C080EE3FC080913E0280FFFACF89E38E
:103FC00039C080913E0282FF0CC080913E0284FF86
:103FD00002C080E02FC083EE2DC080913E0282FFA0
:103FE000F4CF82EE27C080913E0283FF0AC0809109
:103FF0003E0284FDEECF87EE1DC080913E0283FF1E
:10400000F6CF86EE17C080913E0285FF06C089E29A
:1040100011C080913E0285FFFACF85E30BC08091ED
:104020003E0286FF06C08AE205C080913E0286FFFE
:10403000FACF81E30E94FB1E0895BF92CF92DF92D8
:10404000EF92FF920F931F93CF93DF938C01B12CCC
:10405000EE24E394F12C8B2D0E948D086C01C0E0BE
:10406000D0E097010C2E02C0220F331F0A94E2F712
:104070002C213D21232BB1F06C2F7B2D80E00E9461
:10408000AA1F9C018017910759F0832F807E932FE0
:10409000907C11F0803A31F430E02017310711F4B0
:1040A00081E009C02196CE30D105D9F6B39485E0E0
:1040B000B812D1CF80E0DF91CF911F910F91FF9087
:1040C000EF90DF90CF90BF900895CF93DF93EC01F6
:1040D0008CE290E00E941D20882329F0CE01DF9120
:1040E000CF910C941D2080E0DF91CF910895CF9364
:1040F0000E94E221811102C00E94C32186E794E060
:104100000E94B406C5E6C15049F00E9492078FE3B1
:104110009CE90197F1F700C00000F5CF8FE694E02D
:104120000E94B40689E290E00E946520811129C1B5
:104130008AE290E00E94652081110E94C32185E0FF
:1041400090E00E94652081110E94D81E0E94FE1DF1
:104150000E94ED218093200287E090E00E9465207C
:104160008823B1F18BE190E00E946520882351F013
:104170009091200291FB882780F921E0822780FB23
:1041800091F924C08EE090E00E946520882351F0D0
:104190009091200292FB882780F921E0822780FB02
:1041A00092F914C080E190E00E9465209091200275
:1041B000882341F093FB882780F921E0822780FB48
:1041C00093F904C0892F809580FB90F99093200289
:1041D000809120020E94F1210E94FF2180933E02E3
:1041E00080EE90E00E946520882341F080913E029D
:1041F000982F909590FB80F980933E0289E390E0A0
:104200000E946520882359F090913E0291FB8827F7
:1042100080F921E0822780FB91F990933E0282EEA3
:1042200090E00E946520882359F090913E0292FB15
:10423000882780F921E0822780FB92F990933E0243
:1042400086EE90E00E946520882359F090913E020E
:1042500093FB882780F921E0822780FB93F99093D4
:104260003E0283EE90E00E946520882359F09091F1
:104270003E0294FB882780F921E0822780FB94F995
:1042800090933E0285E390E00E946520882359F0D8
:1042900090913E0295FB882780F921E0822780FBE0
:1042A00095F990933E0281E390E00E946520882377
:1042B00059F090913E0296FB882780F921E08227F1
:1042C00080FB96F990933E0281E190E00E94652088
:1042D000882359F090913E0297FB882780F921E0CE
:1042E000822780FB97F990933E0280913E020E94C4
:1042F000032280913E0287FB882780F980930C017E
:1043000087E290E00E946520C82F8EE190E00E9435
:1043100065208111C2608FE190E00E9465208111CB
:10432000C46080E290E00E9465208111C86081E253
:1043300090E00E9465208111C06182E290E00E94BD
:1043400065208111C06283E290E00E9465208111A6
:10435000C06484E290E00E946520882311F0C06868
:1043600002C0CC2329F08C2F0E94FA216C2F03C0AD
:104370000E94F621682F70E080E090E0CF910C94CD
:10438000971BCF9108956DEE7EEF80E090E00E9444
:10439000692C60E082E090E00E945B2C60E083E0AA
:1043A00090E00E945B2C60E084E090E00E945B2C37
:1043B00060E085E090E00E945B2C60E086E090E0A9
:1043C0000C945B2C80E090E00E94552C21E08D3E07
:1043D0009E4F09F020E0822F089582E090E00C9437
:1043E0004D2C682F82E090E00C945B2C83E090E0F1
:1043F0000C944D2C682F83E090E00C945B2C84E0AF
:1044000090E00C944D2C682F84E090E00C945B2C91
:1044100086E090E00C944D2C682F86E090E00C94A0
:104420005B2C8091280280FF0BC06091120185E017
:10443000689FB001112475956795759567952AC099
:1044400081FF09C06091120185E0689FB0011124CD
:10445000759567951FC082FF07C06091120185E0C6
:10446000689FB001112416C0409129024423C9F06D
:1044700060911101461788F72091120185E0289F6D
:1044800090011124429FC001439F900D112470E0C0
:104490000E941F2C6038710540F46115710539F0D8
:1044A00002C065E070E0862F08958FE7089581E0EF
:1044B00008958091280280FF08C06091100170E08B
:1044C000759567957595679521C081FF06C06091C8
:1044D000100170E07595679519C082FF04C0609166
:1044E000100170E010C0809129028823C1F0609112
:1044F0000F018617A0F790911001989FC001112419
:1045000070E00E941F2C6038710528F46115710558
:1045100021F0862F08958FE7089581E0089561E0E6
:1045200070E0F4CF803F21F40E941122819504C0F5
:10453000813F29F40E94112280932C020895823F2A
:1045400021F40E941122819504C0833F29F40E9426
:10455000112280932B020895893F19F40E94592259
:1045600005C08A3F31F40E945922819580932D0223
:1045700008958B3F21F40E945922819504C08C3FFD
:1045800029F40E94592280932E020895843F21F439
:1045900080912A02816017C0853F21F480912A0210
:1045A000826011C0863F21F480912A0284600BC092
:1045B000873F21F480912A02886005C0883F31F44A
:1045C00080912A02806180932A0208958D3F21F410
:1045D0008091280281600BC08E3F21F480912802D7
:1045E000826005C08F3F29F4809128028460809307
:1045F00028020895803F39F480912C0287FF6CC017
:1046000010922C0269C0813F29F480912C02181667
:10461000BCF362C090912B02823F29F497FF5CC0EB
:1046200010922B0259C0833F19F41916CCF354C0D1
:10463000893F41F480912D0218160CF04DC0109264
:104640002D024AC08A3F29F480912D0287FF44C081
:10465000F6CF8B3F39F480912E0287FF3DC0109238
:104660002E023AC08C3F29F480912E021816BCF31A
:1046700033C0843F21F480912A028E7F17C0853F8A
:1046800021F480912A028D7F11C0863F21F4809110
:104690002A028B7F0BC0873F21F480912A02877FFB
:1046A00005C0883F31F480912A028F7E80932A02D0
:1046B00013C08D3F21F4809128028E7F0BC08E3F66
:1046C00021F4809128028D7F05C08F3F29F48091CD
:1046D00028028B7F8093280280912B0281110EC0CB
:1046E00080912C0281110AC080912D02811106C097
:1046F00080912E02811102C01092290208958091AA
:10470000200283FF7EC082EB94E00E94B406809179
:104710002A021F928F938DEA94E09F938F930E94B9
:104720004D078BEA94E00E94B40620912B02822F61
:10473000992787FD90959F932F9388EA94E09F9304
:104740008F930E944D0786EA94E00E94B406209160
:104750002C02822F992787FD90959F932F9383EAB0
:1047600094E09F938F930E944D0781EA94E00E940A
:10477000B40620912D02822F992787FD90959F9353
:104780002F938EE994E09F938F930E944D078CE9BD
:1047900094E00E94B40620912E02822F992787FD73
:1047A00090959F932F9389E994E09F938F930E9414
:1047B0004D0786E994E00E94B406809129021F9279
:1047C0008F9383E994E09F938F930E944D0781E933
:1047D00094E00E94B406809128021F928F938EE885
:1047E00094E09F938F930E944D078BE894E00E9482
:1047F000B4068DB79EB74C960FB6F8949EBF0FBE09
:104800008DBF8AE292E00E94EF100E94721E909388
:1048100027028093260208951F93CF93DF93809100
:104820002602909127020E948A1E40912902442369
:1048300021F02091130130E006C0209114015AE0CC
:10484000259F900111248217930708F482C080915C
:104850002B0210912C02D0912D02C0912E028111B9
:1048600007C0111105C0D11103C0CC2309F471C0D8
:104870004F3F19F04F5F40932902181624F40E940D
:10488000112280932B0280912B0287FF05C00E948A
:104890001122819580932B02111624F40E9411227B
:1048A00080932C0280912C0287FF05C00E94112268
:1048B000819580932C0260912B02662339F110912F
:1048C0002C02112319F1772767FD7095872F972FF9
:1048D0000E94242B23E333E343E35FE30E94882B0E
:1048E0000E94F12A60932B02612F772767FD709554
:1048F000872F972F0E94242B23E333E343E35FE3C7
:104900000E94882B0E94F12A60932C021D1624F429
:104910000E94592280932D0280912D0287FF05C0AD
:104920000E945922819580932D021C1624F40E9426
:10493000592280932E0280912E0287FF05C00E948B
:104940005922819580932E02DF91CF911F910C9473
:104950007F23DF91CF911F910895EAE2F2E085E095
:10496000DF011D928A95E9F7109229021092280220
:10497000089585ED96E00E94B4061F9281E08F9322
:104980001F9285E08F9387E896E09F938F930E9414
:104990004D070F900F900F900F900F900F9008956C
:1049A0008330E9F128F4813061F0823009F1089513
:1049B000853009F462C008F449C0863009F474C037
:1049C000089520911401862F90E0820F911D8F3F52
:1049D000910520F4620F6093140103C08FEF809360
:1049E0001401809114011F928F9380EC95E072C0A6
:1049F00020911301862F90E0820F911D8F3F91052A
:104A000020F4620F6093130103C08FEF80931301B2
:104A1000809113011F928F938EEA95E05BC02091E5
:104A20001201862F90E0820F911D8F3F910520F497
:104A3000620F6093120103C08FEF80931201809187
:104A400012011F928F938BE995E044C020911101D0
:104A5000862F90E0820F911D8F3F910520F4620F09
:104A60006093110103C08FEF8093110180911101B8
:104A70001F928F9386E895E02DC020911001862F1C
:104A800090E0820F911D8F3F910520F4620F60939B
:104A9000100103C08FEF80931001809110011F92CD
:104AA0008F938DE695E016C020910F01862F90E040
:104AB000820F911D8F3F910520F4620F60930F01CB
:104AC00003C08FEF80930F0180910F011F928F938E
:104AD00082E595E09F938F930E944D070F900F9072
:104AE0000F900F900895833081F128F4813059F0B0
:104AF0008230D1F00895853009F449C0B8F186308C
:104B000009F456C0089580911401681720F4861B9B
:104B10008093140102C010921401809114011F921D
:104B20008F9383E495E054C080911301681720F4BB
:104B3000861B8093130102C0109213018091130110
:104B40001F928F9381E395E043C080911201681713
:104B500020F4861B8093120102C0109212018091F2
:104B600012011F928F938EE195E032C08091110166
:104B7000681720F4861B8093110102C01092110166
:104B8000809111011F928F9389E095E021C080915F
:104B90001001681720F4861B8093100102C0109248
:104BA0001001809110011F928F9380EF94E010C04C
:104BB00080910F01681720F4861B80930F0102C0BB
:104BC00010920F0180910F011F928F9385ED94E059
:104BD0009F938F930E944D070F900F900F900F900F
:104BE0000895CF93C82F1F928F932AED37E03F93FC
:104BF0002F930E944D0761E070E080E090E004C0D8
:104C0000660F771F881F991FCA95D2F70E94971BBE
:104C10000F900F900F900F90CF910C946817CF9337
:104C20008B3109F409C208F049C08E3009F417C26B
:104C300000F5873009F4E7C1A8F4863009F095C281
:104C400080912002817F8E7F809320028FED97E0FC
:104C50000E94B4068BE59CE00E94B40681E080933C
:104C60003002CFC1883009F45BC08B3009F4C5C174
:104C70007CC2813109F461C220F4803109F402C29E
:104C800074C2863109F418C2893109F06EC28FEC02
:104C90009BE00E94B40683EA9BE00E94B4068CE588
:104CA0009BE00E94B4068FE29BE00E94B4068AEE6D
:104CB0009AE00E94B4068CEB9AE0A1C1853309F416
:104CC0004EC268F4873209F44AC228F48E3108F4DF
:104CD0004CC28D5147C2893209F441C246C2833465
:104CE00038F48A3308F03DC2883309F486C13DC2E6
:104CF000833409F434C2883409F037C20E9468173B
:104D00008AE49CE00E94B4069FEF23ED80E391507B
:104D100020408040E1F700C000000E94D81E71C111
:104D20008FE59CE00E94B40689E19AE00E94B406F7
:104D30000E94F6211F928F9386E19AE09F938F93B2
:104D40000E944D0784E19AE00E94B4060E94ED2182
:104D5000C82F81E09AE00E94B4061F92CF932CEFF7
:104D600039E03F932F930E944D078AEF99E00E940C
:104D7000B40680EF99E00E94B4068C2F81701F92D8
:104D80008F932DEE39E03F932F930E944D078BEECA
:104D900099E00E94B40681EE99E00E94B406C1FB3E
:104DA000882780F91F928F932EED39E03F932F9340
:104DB0000E944D078CED99E00E94B40680ED99E0C9
:104DC0000E94B406C2FB882780F91F928F932DECB6
:104DD00039E03F932F930E944D078BEC99E00E949E
:104DE000B40682EC99E00E94B406C3FBCC27C0F95C
:104DF0001F92CF938FEB99E09F938F930E944D0763
:104E00008DEB99E00E94B4060E94FF21C82F89EA29
:104E100099E00E94B4061F92CF9324EA39E03F93B1
:104E20002F930E944D0782EA99E00E94B40689E818
:104E300099E00E94B4068C2F81701F928F9326E810
:104E400039E03F932F930E944D078DB79EB7809610
:104E50000FB6F8949EBF0FBE8DBF84E899E00E9404
:104E6000B4068DE699E00E94B406C1FB882780F95C
:104E70001F928F932AE639E03F932F930E944D07AC
:104E800088E699E00E94B40686E599E00E94B4069F
:104E9000C2FB882780F91F928F9323E539E03F9367
:104EA0002F930E944D0781E599E00E94B4068FE39D
:104EB00099E00E94B406C3FB882780F91F928F9364
:104EC0002CE339E03F932F930E944D078AE399E04A
:104ED0000E94B40680E399E00E94B406C4FB8827D0
:104EE00080F91F928F932DE239E03F932F930E9418
:104EF0004D078BE299E00E94B40689E199E00E9497
:104F0000B406C5FB882780F91F928F9326E139E00C
:104F10003F932F930E944D0784E199E00E94B406CD
:104F200088EF98E00E94B406C6FB882780F91F929C
:104F30008F9325EF38E03F932F930E944D0783EF27
:104F400098E00E94B4068BEE98E00E94B406C7FB7E
:104F5000CC27C0F91F92CF9388EE98E09F938F9350
:104F60000E944D0786EE98E00E94B4060E94082237
:104F7000C82F8FEC98E00E94B4061F92CF932AECC2
:104F800038E03F932F930E944D078DB79EB78096D0
:104F90000FB6F8949EBF0FBE8DBF88EC98E00E94BC
:104FA000B4068EEB98E00E94B4068C2F81701F929D
:104FB0008F932BEB38E03F932F930E944D0789EBA3
:104FC00098E00E94B40680EB98E00E94B406C69573
:104FD0001F92CF938DEA98E09F938F930E944D0785
:104FE0008BEA98E00E94B4068DB79EB708960FB67C
:104FF000F8949EBF0FBE8DBF04C086E098E00E946B
:10500000B406C1E0B7C080912002C82FC17080FFF4
:1050100009C08DE39CE00E94B40680912002817F4C
:105020008E7F44C081E39CE00E94B4068091200200
:10503000816080932002E5CF8091200281FBCC2704
:10504000C0F991E0C927C0FB81F980932002CC23ED
:1050500019F084E29CE025C086E19CE0D0CF8091ED
:10506000200282FBCC27C0F991E0C927C0FB82F95E
:1050700080932002CC2319F087E09CE012C087EFD8
:105080009BE0BDCF8091200283FBCC27C0F991E04B
:10509000C927C0FB83F980932002CC2351F08BEE0B
:1050A0009BE00E94B40680912002816080932002E0
:1050B00061C08EED9BE0A3CF8EEA9AE00E94B40619
:1050C0000E949E101F928F9384E99AE09F938F9382
:1050D0000E944D0780910B011F928F938DE79AE0FC
:1050E0009F938F930E944D078091AB011F928F93E6
:1050F0008AE69AE09F938F930E944D0780910C015E
:105100001F928F9387E59AE09F938F930E944D079C
:105110000E947E1E9F938F937F936F9380E49AE00B
:105120009F938F930E944D078DB79EB746960FB6FB
:10513000F8949EBF0FBE8DBF64CF0E946817C091C8
:105140000C0181E0C827C0930C01CC2329F086E331
:105150009AE00E94B4060EC08BE29AE050CF80E045
:1051600001C089530E94F1254CCF89E29AE00E9448
:10517000B406C0E08C2FCF91089580E0089580E0C0
:105180000895CF93C82F80913002813071F020F0C4
:10519000823009F448C03FC1A0910D01B0910E01C9
:1051A0008C91823209F039C107C0A0910D01B091F4
:1051B0000E018C91823249F48C2F0E94BD288111FE
:1051C0002FC08C2F0E940F262CC08C2F0E94BF282E
:1051D000811126C0C431E1F070F4CB3081F0C031D0
:1051E000D1F40E94B92482ED97E00E94B40682E0D7
:1051F0008093300215C0C93259F0C83361F48FED85
:1052000097E00E94B40686ED97E00E94B40608C0BD
:105210001092300204C180ED97E00E94B406FFC0F6
:1052200081E08170FEC0C43228F5CE3108F0C1C0E3
:10523000CB30A1F1D0F4C73009F0D3C08EE1809318
:10524000140182E3809313018AE08093120184E1C8
:105250008093110188E08093100188E280930F0110
:1052600086E796E00E94B406BFC0C33149F1C4315D
:10527000C1F0B7C0CB3409F4A9C028F4C93289F011
:10528000C83361F0AEC0C13509F49EC0C23509F41F
:1052900099C0CE3409F0A5C06AE09EC00E94B9242E
:1052A000A3C080912F02882319F010922F029CC076
:1052B00083E896E00E94B40681E080933002B1C09A
:1052C0008DE596E00E94B4068BE496E00E94B40659
:1052D000809114011F928F9388E496E09F938F939F
:1052E0000E944D0786E496E00E94B40684E396E0AF
:1052F0000E94B406809113011F928F9381E396E080
:105300009F938F930E944D078FE296E00E94B40610
:1053100080E296E00E94B406809112011F928F9362
:105320008DE196E09F938F930E944D078BE196E06D
:105330000E94B4068AE096E00E94B40680911101B2
:105340001F928F9387E096E09F938F930E944D0763
:1053500085E096E00E94B40680EF95E00E94B406D6
:10536000809110011F928F938DEE95E09F938F9304
:105370000E944D078BEE95E00E94B40684ED95E007
:105380000E94B40680910F011F928F9381ED95E0EA
:105390009F938F930E944D078FEC95E00E94B40677
:1053A0008DB79EB748960FB6F8949EBF0FBE8DBFBF
:1053B0001BC0CE51EC2FF0E0E25DFE4F8081809368
:1053C0002F0212C061E003C061E006C06AE0809174
:1053D0002F020E94D02408C080912F020E947325C2
:1053E00003C084E796E013C080912F02882369F000
:1053F0001F928F938EE696E09F938F930E944D07A6
:105400000F900F900F900F9004C08BE696E00E94D3
:10541000B40681E006C01092300280E002C080E055
:1054200000CFCF9108950E94E221811102C00E9415
:10543000C3210E94082280933F0280FF02C086950C
:1054400001C080E00C94DD0880913F02982F969572
:1054500039F481708260816080933F020E940C2247
:105460008091200280FF0FC080913F0286951F929D
:105470008F938CEA9CE09F938F930E944D070F902F
:105480000F900F900F9080913F0286950C94DD084D
:1054900080913F02982F969591F09158990F8170C5
:1054A000892B80933F028E7F91E009F490E08091F8
:1054B0003F0290FB80F980933F020E940C22809172
:1054C000200280FF0FC080913F0286951F928F932C
:1054D00084E99CE09F938F930E944D070F900F905B
:1054E0000F900F9080913F0286950C94DD0880917B
:1054F0003F02982F909590FB80F980933F020E9485
:105500000C228091200280FF0FC080913F028170A9
:105510001F928F938EE79CE09F938F930E944D077D
:105520000F900F900F900F9080913F0280FF02C06C
:10553000869501C080E00C94DD0830913F02232F56
:1055400026952F5F2F77822F90E0317002972CF4F1
:10555000220F232B20933F0202C030933F02809101
:105560003F028E7F91E009F490E080913F0290FB32
:1055700080F980933F020E940C228091200280FFDC
:105580000FC080913F0286951F928F938AE69CE020
:105590009F938F930E944D070F900F900F900F9045
:1055A00080913F0286950C94DD0820913F02922F56
:1055B00096959827990F822F8170892B80933F02AF
:1055C0008E7F91E009F490E080913F0290FB80F99A
:1055D00080933F020E940C2280913F0286950C949A
:1055E000DD0804D06894B1118DC0089570D088F0A2
:1055F0009F5790F0B92F9927B751A0F0D1F0660FBF
:10560000771F881F991F1AF0BA95C9F712C0B130D9
:1056100081F077D0B1E0089574C0672F782F882784
:10562000B85F39F0B93FCCF3869577956795B39518
:10563000D9F73EF490958095709561957F4F8F4F87
:105640009F4F0895E89409C097FB3EF4909580958C
:10565000709561957F4F8F4F9F4F9923A9F0F92F38
:1056600096E9BB279395F695879577956795B795B6
:10567000F111F8CFFAF4BB0F11F460FF1BC06F5F9C
:105680007F4F8F4F9F4F16C0882311F096E911C0AE
:10569000772321F09EE8872F762F05C0662371F0CF
:1056A00096E8862F70E060E02AF09A95660F771FE3
:1056B000881FDAF7880F9695879597F9089557FD13
:1056C0009058440F551F59F05F3F71F04795880F70
:1056D00097FB991F61F09F3F79F087950895121607
:1056E00013061406551FF2CF4695F1DF08C01616B3
:1056F00017061806991FF1CF869571056105089464
:105700000895E894BB2766277727CB0197F908957A
:105710000BD078C069D028F06ED018F0952309F02E
:105720005AC05FC01124EECFCADFA0F3959FD1F31A
:10573000950F50E0551F629FF001729FBB27F00D3F
:10574000B11D639FAA27F00DB11DAA1F649F662794
:10575000B00DA11D661F829F2227B00DA11D621FE3
:10576000739FB00DA11D621F839FA00D611D221F9D
:10577000749F3327A00D611D231F849F600D211D81
:10578000822F762F6A2F11249F5750408AF0E1F024
:1057900088234AF0EE0FFF1FBB1F661F771F881F6D
:1057A00091505040A9F79E3F510570F014C0AACF08
:1057B0005F3FECF3983EDCF3869577956795B79558
:1057C000F795E7959F5FC1F7FE2B880F911D969582
:1057D000879597F9089597F99F6780E870E060E0F2
:1057E00008959FEF80EC089500240A94161617067A
:1057F00018060906089500240A94121613061406C2
:1058000005060895092E0394000C11F4882352F024
:10581000BB0F40F4BF2B11F460FF04C06F5F7F4FDC
:105820008F4F9F4F0895991B79E004C0991F9617D9
:1058300008F0961B881F7A95C9F78095089597FB05
:10584000072E16F4009407D077FD09D00E94392C5A
:1058500007FC05D03EF4909581959F4F0895709573
:1058600061957F4F0895EE0FFF1F0590F491E02D95
:105870000994AA1BBB1B51E107C0AA1FBB1FA61797
:10588000B70710F0A61BB70B881F991F5A95A9F7E9
:1058900080959095BC01CD010895F999FECF92BDF8
:1058A00081BDF89A992780B50895A8E1B0E042E05B
:1058B00050E00C94702C262FF999FECF1FBA92BDA0
:1058C00081BD20BD0FB6F894FA9AF99A0FBE0196E1
:1058D00008950E945B2C272F0C945C2CDC01CB01DB
:1058E000FC01F999FECF06C0F2BDE1BDF89A3196F0
:1058F00000B40D9241505040B8F70895F894FFCF8E
:1059000005EB08DC09B909850952090101FE0128E6
:1059100008140A321E404D362239B7036A03340395
:105920001203D9024C0265027E029702B7020102FD
:08593000030405060708090045
:00000001FF
