:100000000C9487060C94CB060C94CB060C94CB0670
:100010000C94CB060C94CB060C94CB060C94CB061C
:100020000C94CB060C94CB060C94620E0C94340FFB
:100030000C94651E0C94CB060C94CB060C94CB064A
:100040000C94CB060C94CB060C94CB060C94CB06EC
:100050000C94CB060C94D81E0C94CB060C94CB06B7
:100060000C94CB060C94CB060C94CB060C94CB06CC
:100070000C94CB060C94CB060C94CB060C94CB06BC
:100080000C94CB060C94CB060C94CB060C94CB06AC
:100090000C94CB060C94CB060C94CB060C94CB069C
:1000A0000C94CB060C94CB060C94CB06D507D80742
:1000B000DB07DE07E107E407E707EA07ED07F007DC
:1000C000F307F607F907990FBB0FA610BB0FA61091
:1000D000FD0F2010A610751088104B144B147914C6
:1000E0007914D51411156C176C1729156C17201677
:1000F0002016DC16F0166C175A17F1A22CA100F08E
:10010000291E1F20212223242526272D2E2A2B14A9
:100110001A0815171C180C12132F30313904160742
:10012000090A0B0D0E0F3334282BE1641D1B061931
:100130000511103637385232E0E3E2002CC0C1001E
:10014000E65051514F00013A3B3C3D3E3F40414259
:100150004344454C0101010101010101520101012A
:1001600001010101010101010150514F0101010192
:10017000010101010101010101010101010101016F
:100180000100010101000101010101000101010162
:1001900001010101696A010101010101010101017E
:1001A00001A8ACAB0101010101010101010101B094
:1001B000AAA90101010101010101010101010101DE
:1001C000010101C201010100010101000101010160
:1001D00001000A002530313662003A200025303215
:1001E00058000A722F6320303132333435363738B5
:1001F000394142434445460A000A0025303258003E
:10020000626F756E6365213A20004B6579626F619C
:1002100072642073746172742E0A00555342206315
:100220006F6E666967757265642E0A000D0A696EE5
:1002300069740A005B445D005B435D001E0342007D
:1002400061006E0061006E006100530070006C0080
:1002500069007400200036003000000022035400C2
:1002600068006500560061006E0020004B006500CC
:10027000790062006F00610072006400730000008A
:100280000403090409028D00050100A032090400DD
:1002900000010301010009211101000122400007B2
:1002A00005810308000A0904010001030102000995
:1002B0002111010001224D000705820308000A09EF
:1002C000040200010300000009211101000122368F
:1002D000000705830308000A090403000203000065
:1002E00000092111010001222200070584032000DA
:1002F00001070504032000010904040001030000B4
:1003000000092111010001223900070585032000A1
:10031000011201100100000008AEFE70880100010A
:1003200002000105010906A101050719E029E715E9
:100330000025019508750181020508190129059517
:1003400005750191029501750391010507190029B1
:10035000F71500250195F875018102C00631FF09E6
:1003600074A1010975150026FF009520750881020A
:100370000976150026FF00952075089102C0050139
:100380000980A101850216810026B7001A81002A82
:10039000B700751095018100C0050C0901A1018508
:1003A00003160100269C021A01002A9C0275109572
:1003B000018100C005010902A1010901A10005098F
:1003C0001901290515002501950575018102950181
:1003D000750381010501093009311581257F9502D9
:1003E0007508810609381581257F950175088106F4
:1003F000050C0A38021581257F950175088106C014
:10040000C005010906A101050719E029E715002526
:10041000019508750181029501750881010508198A
:100420000129059505750191029501750391010555
:1004300007190029FF150026FF00950675088100A1
:10044000C0636F6E73756D65723A20253034580A3B
:100450000073797374656D3A20253034580A000AA8
:10046000002530325820006B6579626F6172643A02
:1004700020004C45443A20253032580A0064656C0F
:100480005F6B65795F6269743A2063616E277420DF
:1004900064656C3A20253032580A006164645F6BF1
:1004A00065795F6269743A2063616E2774206164C4
:1004B000643A20253032580A00646F6E652E0A00B7
:1004C000626F6F746D61676963207363616E3A2058
:1004D0002E2E2E2000290A002575002F00257500DC
:1004E0005D280025640020002564002000256400AC
:1004F00020002564007C0025303258006D6F757334
:10050000656B6579205B62746E7C7820792076203B
:10051000685D287265702F61636C293A205B006DFD
:100520006B5F776865656C5F74696D655F746F5F3D
:100530006D6178203D2025640A006D6B5F776865EA
:10054000656C5F6D61785F7370656564203D202523
:10055000640A006D6B5F74696D655F746F5F6D61D8
:1005600078203D2025640A006D6B5F6D61785F73B4
:1005700070656564203D2025640A006D6B5F696EBF
:1005800074657276616C203D2025640A006D6B5F96
:1005900064656C6179203D2025640A006D6B5F778E
:1005A0006865656C5F74696D655F746F5F6D6178B8
:1005B000203D2025640A006D6B5F776865656C5F80
:1005C0006D61785F7370656564203D2025640A0065
:1005D0006D6B5F74696D655F746F5F6D6178203DF1
:1005E0002025640A006D6B5F6D61785F73706565CF
:1005F00064203D2025640A006D6B5F696E7465722E
:1006000076616C203D2025640A006D6B5F64656C2B
:100610006179203D2025640A000A00257500363ADC
:1006200020776865656C5F74696D655F746F5F6D79
:1006300061783A20000A00257500353A2077686510
:10064000656C5F6D61785F73706565643A20000A60
:1006500000257500343A2074696D655F746F5F6DB5
:1006600061783A20000A00257500333A206D6178E0
:100670005F73706565643A20000A00257500323AA0
:1006800020696E74657276616C286D73293A20005A
:100690000A00257500313A2064656C6179282A3199
:1006A000306D73293A20000A092D2056616C75655A
:1006B00073202D0A004D3E004D25643E20003F0072
:1006C0007365742064656661756C740A00433E202E
:1006D0000077686572652064656C74613A206375A3
:1006E00072736F723D25642C20776865656C3D25BB
:1006F000640A53656520687474703A2F2F656E2EF6
:1007000077696B6970656469612E6F72672F7769AD
:100710006B692F4D6F7573655F6B6579730A000A9E
:10072000092D204D6F7573656B6579202D0A455332
:10073000432F713A09717569740A313A0964656C1D
:100740006179282A31306D73290A323A09696E7449
:10075000657276616C286D73290A333A096D617888
:100760005F73706565640A343A0974696D655F7416
:100770006F5F6D61780A353A09776865656C5F6D02
:1007800061785F73706565640A363A0977686565F4
:100790006C5F74696D655F746F5F6D61780A0A7074
:1007A0003A097072696E742076616C7565730A64BB
:1007B0003A097365742064656661756C74730A75B3
:1007C000703A092B310A646F776E3A092D310A703D
:1007D0006775703A092B31300A7067646F776E3A2B
:1007E000092D31300A0A7370656564203D20646507
:1007F0006C7461202A206D61785F73706565642078
:100800002A2028726570656174202F2074696D65D7
:100810005F746F5F6D6178290A003F004D3E2000D4
:10082000433E20004C25640A000A092D20436F6EC8
:10083000736F6C65202D0A4553432F713A0971750A
:1008400069740A6D3A096D6F7573656B65790A0095
:100850000A092D204D61676963202D0A643A0964F5
:10086000656275670A783A096465627567206D612B
:10087000747269780A6B3A096465627567206B6502
:1008800079626F6172640A6D3A0964656275672006
:100890006D6F7573650A763A0976657273696F6E66
:1008A0000A733A097374617475730A633A09636F62
:1008B0006E736F6C65206D6F64650A302D343A0974
:1008C0006C61796572302D34284631302D463429DB
:1008D0000A506175733A09626F6F746C6F61646579
:1008E000720A653A09656570726F6D0A6E3A094E53
:1008F0004B524F0A000A002575002E6C6576656C18
:100900003A20000A002575002E656E61626C653A1A
:1009100020000A0025303258006261636B6C696701
:1009200068745F636F6E6669672E7261773A200044
:100930000A002575002E6E6B726F3A20000A0025A2
:1009400075002E737761705F6261636B736C6173A6
:10095000685F6261636B73706163653A20000A00CF
:100960002575002E737761705F67726176655F65CC
:1009700073633A20000A002575002E6E6F5F67755D
:10098000693A20000A002575002E737761705F7246
:10099000616C745F726775693A20000A0025750002
:1009A0002E737761705F6C616C745F6C6775693A08
:1009B00020000A002575002E636170736C6F636BF5
:1009C0005F746F5F636F6E74726F6C3A20000A0021
:1009D0002575002E737761705F636F6E74726F6C34
:1009E0005F636170736C6F636B3A20000A0025309F
:1009F0003258006B65796D61705F636F6E66696711
:100A00002E7261773A20000A002575002E6D6F75F1
:100A100073653A20000A002575002E6B6579626FB8
:100A20006172643A20000A002575002E6D617472AF
:100A300069783A20000A002575002E656E61626CA7
:100A4000653A20000A0025303258006465627567F7
:100A50005F636F6E6669672E7261773A20000A00E5
:100A600025750064656661756C745F6C617965728B
:100A70003A20003F004E4B524F3A206F66660A0004
:100A80004E4B524F3A206F6E0A0074696D65725F6B
:100A900072656164333228293A202530346C580A53
:100AA000006B6579626F6172645F6E6B726F3A2082
:100AB00025580A006B6579626F6172645F69646CC6
:100AC000653A2025580A006B6579626F6172645F30
:100AD00070726F746F636F6C3A2025580A00686FEC
:100AE00073745F6B6579626F6172645F6C65647368
:100AF00028293A2025580A000A092D2053746174C8
:100B00007573202D0A004743433A20342E382E3186
:100B1000204156522D4C4942433A20312E382E3036
:100B200073766E204156525F415243483A206176B7
:100B300072350A004F5054494F4E533A204C554697
:100B40004120424F4F544D41474943204D4F55534B
:100B5000454B45592045585452414B455920434F28
:100B60004E534F4C4520434F4D4D414E44204E4B2C
:100B7000524F20343039360A004255494C443A200D
:100B8000363437663939642D6469727479202831B6
:100B9000343A33343A3034204175672032382032C9
:100BA000303137290A005649443A203078464541C9
:100BB000452854686556616E204B6579626F617295
:100BC000647329205049443A203078383837302827
:100BD00042616E616E6153706C69742036302920F9
:100BE0005645523A203078303030310A004445536F
:100BF000433A206B6579626F617264206669726D39
:100C00007761726520666F722042616E616E61531A
:100C1000706C69742036300A000A092D20566572FE
:100C200073696F6E202D0A000A6D6F7573653A2027
:100C30006F66660A000A6D6F7573653A206F6E0AFB
:100C4000000A6B6579626F6172643A206F66660AAA
:100C5000000A6B6579626F6172643A206F6E0A00F8
:100C60000A6D61747269783A206F66660A000A6DCF
:100C700061747269783A206F6E0A000A6465627561
:100C8000673A206F6E0A000A64656275673A206FE2
:100C900066660A000A0A626F6F746C6F616465723F
:100CA0002E2E2E2000433E20006565636F6E666920
:100CB000673A0A006261636B6C69676874207374D9
:100CC00065703A2025750A006261636B6C6967681C
:100CD0007420746F67676C653A2025750A0062613D
:100CE000636B6C69676874206465637265617365C2
:100CF0003A2025750A006261636B6C69676874202D
:100D0000696E6372656173653A2025750A00112466
:100D10001FBECFEFDAE0DEBFCDBF04B603FE24C0B6
:100D20008091400290914102A0914202B091430211
:100D30008730904BA740B04BB9F41092400210920C
:100D40004102109242021092430214BE84B7877F80
:100D500084BF88E10FB6F894809360001092600021
:100D60000FBEE0E0F8E3099511E0A0E0B1E0EAE4AD
:100D7000F9E502C005900D92A833B107D9F722E03A
:100D8000A8E3B1E001C01D92A034B207E1F70E94D0
:100D9000950B0C94A32C0C940000FF93EF93E0911F
:100DA0003801F0913901309709F00995EF91FF91E1
:100DB0000895FC018591803011F0EFDFFBCF08959D
:100DC000FF27E0E230E247FF0CC0419597FF09C0E2
:100DD000EDE26095709580959095611D711D811D66
:100DE000911D27FF02C0219530E350E2AA27660F2C
:100DF000771F881F991FAA1FA41710F0A41B6395C3
:100E00005A95A9F7AA3008F0A95FA05DAF93F395B2
:100E1000611571058105910541F7ED3211F4EF93EC
:100E2000F395F21718F43F93F395FBCF8F91B5DF4D
:100E3000FA95E1F70895E991F9918591803021F0D3
:100E4000853219F0AADFF9CF089520E0E894559192
:100E50005532C1F3503311F4689455915A3348F424
:100E6000505390F3220F022E220F220F200D250F38
:100E7000F4CF0EF4219589919991533619F3533794
:100E800029F1533559F1BC0188279927E8945C363C
:100E900021F48991999168945591543639F446EF2B
:100EA0007EF077FF0DC08FEF9FEF0AC055374AE005
:100EB00039F0583540E121F0523642E009F008950A
:100EC000FF93EF937DDFEF91FF91B7CFFF93EF9308
:100ED000FC0181918030B9F360DFFBCFFF93EF938A
:100EE00068DFF1CFDF93CF93CDB7DEB72596A3DFD1
:100EF000CF91DF91089561110DC00E948D172FEFE2
:100F000084E39CE0215080409040E1F700C0000065
:100F10000C94FD1E089584B1857F84B985B1857FC9
:100F200085B98AB11AB88BB11BB880B38C7C80BBF1
:100F300081B38C7C81BB089585B7806885BF85B7F8
:100F4000806885BF0E948B0784B18A7884B985B197
:100F5000856785B9ECE7F1E0A2E7B1E01192119263
:100F60001D921D9281E0E638F807C1F70895DF92DF
:100F7000EF92FF920F931F93CF93DF93CAE3D1E0D9
:100F8000F12CEE24E39485E0D82E0BEF11E08F2DA9
:100F900090E0FC013197ED30F10520F4EA5AFF4F63
:100FA0000C94582C859A8D9826C0219A299823C094
:100FB000809A889820C0819A89981DC0849A8C98BC
:100FC0001AC0239A2B9817C0579A5F9814C0569A44
:100FD0005E9811C0549A5C980EC0559A5D980BC0EB
:100FE000539A5B9808C0529A5A9805C0519A5998DA
:100FF00002C0509A589880EA8A95F1F743B141703F
:101000004E2550E01A9B03C080E090E002C082E0D1
:1010100090E0842B952B1C9B03C040E050E002C065
:1010200044E050E0842B952B1D9B03C020E030E072
:1010300002C028E030E0822B932B1E9B03C020E0EF
:1010400030E002C020E130E0822B932B28813981EF
:101050002817390741F199838883809100018823FB
:1010600001F18091200280FF04C080E092E00E94A4
:10107000D9068091200280FF0CC0809100011F9250
:101080008F931F930F930E9472070F900F900F90F2
:101090000F908091200280FF04C089EF91E00E94B0
:1010A000D906D09200010E948B07F39422969EE00D
:1010B000F9126DCF80910001882359F081508093FF
:1010C0000001882369F08FE99FE00197F1F700C0E4
:1010D0000000ACE7B1E020E030E001E010E00DC03E
:1010E000A6E5B1E0EAE3F1E0819191918D939D93C2
:1010F00091E0E635F907C1F7ECCFF22EE801022EB8
:1011000002C0CC0FDD1F0A94E2F7E6E5F1E040E013
:1011100050E060E070E0819191918C239D230F2C31
:1011200002C0969587950A94E2F7042E02C0880FB4
:10113000991F0A94E2F7682B792B4F5F5F4F4E306F
:10114000510549F76D937D932F5F3F4F2530310552
:10115000A1F681E0DF91CF911F910F91FF90EF9069
:10116000DF900895E82FF0E0EE0FFF1FE458FE4FE8
:10117000808191810895CF92DF92EF92FF920F9339
:101180001F93CF93DF9382EE91E00E94D9063CE754
:10119000E32E31E0F32EC0E0D0E04DEDC42E41E06F
:1011A000D42E04ED11E0DF93CF93DF92CF920E9413
:1011B00072078AED91E00E94D906F7018191919121
:1011C0007F010E94F51D9F938F931F930F930E94A1
:1011D000720782ED91E00E94D90621968DB79EB7E5
:1011E00008960FB6F8949EBF0FBE8DBFC530D105CF
:1011F000D1F6DF91CF911F910F91FF90EF90DF908B
:10120000CF900895279A882311F02F9A08952F9848
:10121000089581FF02C0279A01C027982F9808954A
:101220008091AA0108959FB7F894109289019FBFF9
:1012300090913502943009F058C09091E9009F7068
:101240002091EC0020FF02C020E801C020E0292B03
:1012500094E09093E9009091EB0090FF43C090914F
:10126000EE0097FF3FC090918601992321F0909165
:10127000E80095FF37C01092860196E03091E800B3
:1012800035FD15C030913502343061F53091EB00F9
:1012900035FD28C0915021F481E08093860122C061
:1012A000EFE9FFE03197F1F700C00000E7CF80934E
:1012B000F1008091E80085FD0AC08091E80080FF80
:1012C000FCCF8091E8008E778093E80006C08FB74E
:1012D000F89491E0909389018FBF2F702093E900DB
:1012E00080E008952F702093E9008FEF0895CF9349
:1012F000DF9300D01F92CDB7DEB7209135022430A6
:1013000019F523E029839B838A832093E9008FEFDB
:101310009091E800815095FD06C095ED9A95F1F702
:1013200000008111F5CF8091E80085FF0DC040E0FD
:1013300050E063E070E0CE0101960E94550C809170
:10134000E8008E778093E8000F900F900F90DF9168
:10135000CF910895CF93DF9300D01F92CDB7DEB722
:1013600020913502243021F522E029839B838A8352
:1013700083E08093E9008FEF9091E800815095FD24
:1013800006C095ED9A95F1F700008111F5CF809197
:10139000E80085FF0DC040E050E063E070E0CE0162
:1013A00001960E94550C8091E8008E778093E800AA
:1013B0000F900F900F90DF91CF91089520913502FB
:1013C0002430F1F422E02093E9002FEF3091E8007F
:1013D000215035FD06C035ED3A95F1F70000211199
:1013E000F5CF2091E80025FF0BC040E050E065E01C
:1013F00070E00E94550C8091E8008E778093E800A1
:101400000895CF93DF93EC0180913502843009F089
:1014100047C080910B018823E1F080910C01882363
:10142000C1F085E08093E9008FEF9091E800815052
:1014300095FD06C095E19A95F1F700008111F5CF71
:101440008091E80085FF2CC040E050E060E270E051
:1014500017C081E08093E9008FEF9091E800815000
:1014600095FD06C095ED9A95F1F700008111F5CF35
:101470008091E80085FF14C040E050E068E070E033
:10148000CE010E94550C8091E8008E778093E80091
:1014900080E2FE01AAE8B1E001900D928A95E1F7A1
:1014A000DF91CF91089588E392E00E94D906809160
:1014B0003402811109C00E94E70D0E94440E809100
:1014C000E20084608093E200089584E392E00E9449
:1014D000D9061092340208950895809187018F5F94
:1014E0008093870162E30E94382C911135C01092DD
:1014F000870180918901882379F1809135028430B8
:1015000049F58091E9008F709091EC0090FF02C046
:1015100090E801C090E0982B84E08093E9008091EE
:10152000EB0080FF14C08091EE0087FF10C0809117
:10153000E80085FF03C01092F100F9CF8091E80028
:1015400080FF05C08091E8008E778093E8009F704F
:101550009093E90010928901089542E061EC81E0E6
:101560000E94610D42E061EC82E00E94610D42E068
:1015700061EC83E00E94610D42E261EC84E00E9434
:10158000610D42E261EC85E00C94610D80913702BF
:10159000833009F455C030F4813071F0823009F4A1
:1015A0008EC008958A3009F47AC08B3009F460C087
:1015B000893009F09CC020C080913602813A09F040
:1015C00096C08091E800877F8093E80080913A027E
:1015D00090913B02892B21F060E080E090E003C015
:1015E00060E28AE891E070E00E949E0C8091E80041
:1015F0008B778093E800089580913602813209F05C
:1016000076C080913A0290913B02009719F00497BE
:1016100009F06DC08091E800877F8093E800809199
:10162000E80082FD05C0809135028111F8CF5FC0CE
:101630008091F1008093AA018091E8008B7753C0DC
:1016400080913602813A09F052C080913A0290911D
:101650003B02892B09F04BC08091E800877F809383
:10166000E8008091E80080FFFCCF80910B0136C03C
:10167000809136028132D9F580913A0290913B02F5
:10168000892BA9F58091E800877F8093E8000E946C
:10169000960D8091380280930B010C948D178091E8
:1016A0003602813221F58091E800877F8093E8003F
:1016B0000E94960D809139028093AB01089580912C
:1016C0003602813AA1F48091E800877F8093E80098
:1016D0008091E80080FFFCCF8091AB018093F10006
:1016E0008091E8008E778093E8000C94960D089521
:1016F000089508958091AA01809388011092AA010B
:1017000080E00E9409090E9458120C948D170C94D5
:101710007A0B0E94241E80913302882329F00E94B4
:101720004A1E81110C943F0C089584B7877F84BFB3
:1017300088E10FB6F89480936000109260000FBEAD
:1017400090E080E80FB6F894809361009093610078
:101750000FBE83E199E00E94DE1D8CE292E00E94C0
:10176000D9060E94780B0E947B110E94E70D0E940F
:10177000440E8091E20084608093E200789480912E
:1017800035028430E1F78BE192E00E94D9060E9495
:101790007D1181E091E00E94BE108AE092E00E94FB
:1017A000D9060E94790B80913502853019F40E9488
:1017B000890BF9CF0E948511F6CF0E945F1E8091A0
:1017C00088018093AA0108950C94DD0B292F3327FB
:1017D00023303105A9F06CF42130310509F442C001
:1017E0002230310509F043C08DE890E024E832E072
:1017F00042C021323105C9F02232310519F137C01A
:1018000099278130910541F08230910541F0892B73
:1018100071F5E0E8F2E005C0ECE5F2E002C0ECE3CF
:10182000F2E0849190E09F0126C0653000F5E62F3C
:10183000F0E0EE0FFF1FEC5DFE4F2081318189E06B
:1018400090E019C0653098F4E62FF0E0DF01AA0FB0
:10185000BB1FA65EBE4F2D913C91EB5EFE4F80817B
:1018600090E009C082E190E021E133E004C080E033
:1018700090E020E030E0FA0131832083089580E198
:1018800089BD82E189BD09B400FEFDCF8091D800F9
:101890008F7D8093D8008091E00082608093E0008B
:1018A0008091E00081FDFCCF0895CF92DF92EF920E
:1018B000FF920F931F93CF93DF937C018B01EA017B
:1018C0000E94B70D811131C0209731F08881998134
:1018D000081B190BE80EF91EC12CD12C011511059E
:1018E00019F18091E80085FD14C08091E8008E77A1
:1018F0008093E800209741F0888199818C0D9D1D8F
:101900009983888385E011C00E94B70D882331F345
:101910000CC0F70181917F018093F1000150110902
:10192000FFEFCF1ADF0ADACF80E0DF91CF911F916E
:101930000F91FF90EF90DF90CF90089520913C029F
:1019400030913D022617370748F06115710539F4CB
:101950002091E8002E772093E80001C0B901FC0136
:1019600020E061157105B9F180913502882309F4F1
:1019700040C0853009F43FC08091E80083FD3DC040
:101980008091E80082FF06C08091E80082FF26C0B7
:1019900080E008958091E80080FFE3CF2091F3007C
:1019A0008091F20090E0922B6115710551F0883022
:1019B000910538F421912093F1006150710901964D
:1019C000F3CF21E0089709F020E08091E8008E77BE
:1019D0008093E800C6CF2111C7CFD6CF80913502C2
:1019E000882339F0853039F08091E80083FFCCCF2F
:1019F00004C082E0089583E0089581E00895209175
:101A00003C0230913D022617370748F061157105F9
:101A100039F42091E8002E772093E80001C0B90145
:101A2000FC0120E061157105C1F180913502882328
:101A300009F441C0853009F440C08091E80083FD7D
:101A40003EC08091E80082FF06C08091E80082FFDE
:101A500027C080E008958091E80080FFE3CF2091C7
:101A6000F3008091F20090E0922B6115710559F01E
:101A70008830910540F424912093F1003196615013
:101A800071090196F2CF21E0089709F020E08091DA
:101A9000E8008E778093E800C5CF2111C6CFD5CF5F
:101AA00080913502882339F0853039F08091E80043
:101AB00083FFCBCF04C082E0089583E0089581E0E6
:101AC0000895982F973058F59093E900981739F0BA
:101AD0007091EC002091ED005091F00003C0242F94
:101AE000762F50E021FF19C03091EB003E7F3093FC
:101AF000EB003091ED003D7F3093ED003091EB0035
:101B000031603093EB007093EC002093ED00509324
:101B1000F0002091EE0027FF07C09F5FD3CF8F70AA
:101B20008093E90081E0089580E008958091360275
:101B300087FD05C08091E80080FF0EC012C0809133
:101B4000E80082FD05C0809135028111F8CF08952B
:101B50008091E8008B7708C0809135028111EACF2F
:101B600008958091E8008E778093E8000895809131
:101B7000E4009091E50045E62091EC0020FF21C0B3
:101B80002091E80020FD21C020913502222389F018
:101B9000253089F02091EB0025FD0FC02091E40055
:101BA0003091E5002817390739F3415041F0C90158
:101BB000E3CF82E0089583E0089581E0089584E012
:101BC00008952091E80022FFDFCF80E008950E9471
:101BD000550E0E945D0EE0EEF0E080818160808312
:101BE000E8EDF0E080818F77808319BCA7EDB0E04D
:101BF0008C918E7F8C9380818F7E808310923402B3
:101C000008950F931F93CF93DF930E94550E0E9468
:101C10005D0EC8EDD0E088818F77888388818068E9
:101C2000888388818F7D888319BC10923502109239
:101C30003102109233021092320200EE10E0F801ED
:101C400080818B7F808388818160888342E060E02F
:101C500080E00E94610DE1EEF0E080818E7F808364
:101C6000E2EEF0E080818160808380818860808303
:101C7000F80180818E7F8083888180618883DF91F5
:101C8000CF911F910F910895E8EDF0E080818F7E54
:101C90008083E7EDF0E080818160808384E082BF13
:101CA00081E0809334020C94010EE8EDF0E0808135
:101CB0008E7F80831092E20008951092DA001092D5
:101CC000E10008951F920F920FB60F9211242F93E7
:101CD0003F934F935F936F937F938F939F93AF93B4
:101CE000BF93EF93FF938091E10082FF0BC080913F
:101CF000E20082FF07C08091E1008B7F8093E100CA
:101D00000E946D0A8091DA0080FF1FC08091D80088
:101D100080FF1BC08091DA008E7F8093DA00809173
:101D2000D90080FF0DC080E189BD82E189BD09B481
:101D300000FEFDCF81E0809335020E94530A05C06A
:101D400019BC109235020E94650A8091E10080FF63
:101D500019C08091E20080FF15C08091E2008E7F63
:101D60008093E2008091E20080618093E2008091A4
:101D7000D80080628093D80019BC85E0809335023A
:101D80000E94870B8091E10084FF30C08091E200C7
:101D900084FF2CC080E189BD82E189BD09B400FEC9
:101DA000FDCF8091D8008F7D8093D8008091E10095
:101DB0008F7E8093E1008091E2008F7E8093E2002D
:101DC0008091E20081608093E2008091310288235B
:101DD00011F084E007C08091E30087FF02C083E038
:101DE00001C081E0809335020E94E40B8091E10004
:101DF00083FF29C08091E20083FF25C08091E1002C
:101E0000877F8093E10082E0809335021092310257
:101E10008091E1008E7F8093E1008091E2008E7FCF
:101E20008093E2008091E20080618093E20042E0D2
:101E300060E080E00E94610D8091F00088608093F6
:101E4000F0000E946C0AFF91EF91BF91AF919F91BA
:101E50008F917F916F915F914F913F912F910F9053
:101E60000FBE0F901F9018951F920F920FB60F92F2
:101E700011242F933F934F935F936F937F938F938F
:101E80009F93AF93BF93CF93EF93FF93C091E900DC
:101E9000CF708091EC001092E9008091F000877F74
:101EA0008093F00078940E94700F1092E900809166
:101EB000F00088608093F000C093E900FF91EF91FB
:101EC000CF91BF91AF919F918F917F916F915F91D2
:101ED0004F913F912F910F900FBE0F901F9018952B
:101EE0001F93CF93DF93CDB7DEB7AA970FB6F894C1
:101EF000DEBF0FBECDBFE6E3F2E08091F10081933B
:101F000022E0EE33F207C9F70E94C60A8091E8008A
:101F100083FF1CC12091360230913702832F90E05D
:101F20008A30910508F012C1FC01ED59FF4F0C9465
:101F3000582C203881F0223809F008C180913A02EB
:101F40008F708093E9008091EB0085FB882780F9F2
:101F50001092E90006C080913202909133029111F3
:101F600082609091E800977F9093E8008093F10061
:101F70001092F100C5C0822F8D7F09F0E7C02223A7
:101F800019F0223061F0E2C080913802813009F00E
:101F9000DDC0333009F080E08093330228C08091A7
:101FA0003802811124C020913A022F7009F4CEC06A
:101FB0002093E9008091EB0080FF19C08091EB0035
:101FC000333011F4806211C080618093EB0081E0B6
:101FD00090E0022E01C0880F0A94EAF78093EA008D
:101FE0001092EA008091EB0088608093EB001092E1
:101FF000E9008091E800877F86C02111A7C0109179
:1020000038021F778091E3008078812B8093E30072
:102010008091E800877F8093E8000E94960D809170
:10202000E80080FFFCCF8091E30080688093E300AC
:10203000112311F083E001C082E08093350286C055
:102040002058223008F082C08091380290913902E5
:102050008C3D23E0920779F583E08A838AE28983C5
:102060004FB7F894DE01139620E03EE051E2E32FF3
:10207000F0E050935700E49120FF03C0E295EF7029
:102080003F5FEF708E2F90E0EA3010F0C79601C0EE
:10209000C0968D939D932F5F243149F74FBF809158
:1020A000E800877F8093E8006AE270E0CE01019645
:1020B0000E949E0C14C0AE014F5F5F4F60913A02C8
:1020C0000E94E60B009709F441C02091E800277FA9
:1020D0002093E800BC0189819A810E94FF0C8091C5
:1020E000E8008B778093E80031C0203879F5809143
:1020F000E800877F8093E800809131028093F100AF
:102100008091E8008E778093E8000E94960D1EC0B3
:1021100021111CC0909138029230C0F48091E800E7
:10212000877F8093E800909331020E94960D809102
:102130003102811104C08091E30087FF02C084E076
:1021400001C081E0809335020E94AD0A8091E800D1
:1021500083FF0AC08091E800877F8093E800809128
:10216000EB0080628093EB00AA960FB6F894DEBF76
:102170000FBECDBFDF91CF911F9108959093B10114
:102180008093B0010895E091B001F091B1013097D2
:1021900021F00190F081E02D099480E00895FF92F4
:1021A0000F931F93CF93DF938C01E091B001F091D7
:1021B000B101309799F10280F381E02D099580916A
:1021C000200282FF2BC080FF04C087E694E00E94BB
:1021D000D906E80180E2F82E01E614E080912002A1
:1021E00080FF0BC088811F928F931F930F930E94D3
:1021F00072070F900F900F900F90FA942196F110A4
:10220000EDCF8091200280FF09C08FE594E0DF913F
:10221000CF911F910F91FF900C94D906DF91CF9130
:102220001F910F91FF900895E091B001F091B101DD
:10223000309721F00480F581E02D09940895CF9323
:10224000DF93EC018091AE019091AF01C817D907DF
:1022500009F1D093AF01C093AE01E091B001F091CC
:10226000B1013097B9F00680F781E02DCE010995D4
:102270008091200282FF0EC080FF0CC0DF93CF93BD
:1022800081E594E09F938F930E9472070F900F90C7
:102290000F900F90DF91CF910895CF93DF93EC01D2
:1022A0008091AC019091AD01C817D90709F1D09385
:1022B000AD01C093AC01E091B001F091B101309754
:1022C000B9F00084F185E02DCE01099580912002BE
:1022D00082FF0EC080FF0CC0DF93CF9381E494E0B7
:1022E0009F938F930E9472070F900F900F900F9003
:1022F000DF91CF9108950C9459120E948E1E0E9476
:102300009C070E949C200C94382A5F926F927F92C7
:102310008F929F92AF92BF92CF92DF92EF92FF92F5
:102320000F931F93CF93DF9300D000D01F92CDB7B0
:10233000DEB70E94B70793EBC92E91E0D92E00E0DB
:1023400010E0AA24A394B12C502E802F0E94B20832
:102350003C01F601E190F1906F01E826F926E114C5
:10236000F104B1F40F5F1F4F0530110569F78FEFCE
:1023700089838A831B820E94971E8160782F9D83A8
:102380008C8349815A816B818D810E945C1241C08E
:102390008091200281FD0E94BB0820E030E04501D1
:1023A000022E02C0880C991C0A94E2F7C4018E2107
:1023B0009F21892B41F129835A826820792081E06D
:1023C000672809F480E08B830E94971E8160782F34
:1023D0009D838C8349815A816B818D810E945C121F
:1023E00049815A816B817C818D810E94101EF80188
:1023F000EE0FFF1FED54FE4F8081918188259925B6
:102400009183808306C02F5F3F4F2E30310539F610
:10241000A9CF0E940F1E0E9431241091B2010E9488
:10242000C310181771F10E94C3108093B2019091EC
:10243000200292FF0EC090FF0CC01F928F9382E784
:1024400094E09F938F930E9472070F900F900F90CC
:102450000F908091B2010F900F900F900F900F90FE
:10246000DF91CF911F910F91FF90EF90DF90CF9070
:10247000BF90AF909F908F907F906F905F900C94E3
:10248000211E0F900F900F900F900F90DF91CF9122
:102490001F910F91FF90EF90DF90CF90BF90AF9082
:1024A0009F908F907F906F905F9008950C94090992
:1024B0000895089508950895CF93DF93CDB7DEB7BB
:1024C0002B970FB6F894DEBF0FBECDBF4F83588752
:1024D00069877A878B878A859B85892B31F05F3F57
:1024E00011F080E003C04F3FE1F781E0811107C0A8
:1024F0004F81588569857A858B850E94101EDE0183
:10250000119686E0FD0111928A95E9F785E0FE01BA
:10251000379601900D928A95E1F749815A816B8136
:102520007C818D819E810E94591A2B960FB6F8945A
:10253000DEBF0FBECDBFDF91CF910895CF93C82FDF
:10254000882309F4E7C08238A1F40E94C31081FDFA
:10255000E1C089E30E94D61C0E94B81D2FEF81EED6
:1025600094E0215080409040E1F700C0000089E3F2
:1025700015C08338C1F40E94C31080FDCBC083E531
:102580000E94D61C0E94B81D2FEF81EE94E02150CE
:1025900080409040E1F700C0000083E50E94271DC5
:1025A000CF910C94B81D8438A1F40E94C31082FD11
:1025B000B1C087E40E94D61C0E94B81D2FEF81EEA7
:1025C00094E0215080409040E1F700C0000087E493
:1025D000E5CF8CEF8C0F813A48F48C2F0E94E628CF
:1025E000811198C08C2F0E94D61CDACF80E28C0F0C
:1025F000883048F4C77081E001C0880FCA95EAF7B7
:102600000E947C1DCDCF8BE58C0F833078F4C53ACA
:1026100029F0C63A31F482E890E005C081E890E004
:1026200002C083E890E0CF910C941F1188E58C0FD5
:10263000853108F06FC0C83A61F1C93A69F1CA3A08
:1026400071F1CB3A79F1CC3A81F1CD3A89F1CE3AB8
:1026500091F1CF3A99F1C13BA1F1C03BA9F1C23B45
:10266000B1F1C33BB9F1C43BC1F1C53BC9F1C63BB4
:10267000D1F1C73BD9F1C83BE1F1C93BE9F1CA3B14
:10268000F1F1CB3BF9F1CC3B09F03FC08AE292E09B
:102690003EC082EE90E03BC089EE90E038C08AEE0A
:1026A00090E035C085EB90E032C086EB90E02FC023
:1026B00083EB90E02CC084EB90E029C087EB90E0A6
:1026C00026C08CEC90E023C08DEC90E020C083E825
:1026D00091E01DC08AE891E01AC082E991E017C03C
:1026E00084E991E014C081E292E011C083E292E0BB
:1026F0000EC084E292E00BC085E292E008C086E260
:1027000092E005C087E292E002C080E090E0CF91C5
:102710000C944D11CF910895882309F466C0823836
:10272000A1F40E94C31081FF60C089E30E94D61CFF
:102730000E94B81D2FEF81EE94E021508040904020
:10274000E1F700C0000089E315C08338B9F40E94A6
:10275000C31080FF4AC083E50E94D61C0E94B81DAA
:102760002FEF81EE94E0215080409040E1F700C0CF
:10277000000083E50E94271D0C94B81D8438A1F445
:102780000E94C31082FF31C087E40E94D61C0E94C1
:10279000B81D2FEF81EE94E0215080409040E1F78A
:1027A00000C0000087E4E6CF9CEF980F913A10F349
:1027B00090E2980F983050F4877091E001C0990F23
:1027C0008A95EAF7892F0E94821DD6CF9BE5980F44
:1027D000933020F480E090E00C941F11885A8531EA
:1027E00020F480E090E00C944D110895882321F0AE
:1027F0000E947C1D0C94B81D0895882321F00E942E
:10280000821D0C94B81D0895CF92DF92EF92FF9233
:102810000F931F93CF93DF93CDB7DEB728970FB6F3
:10282000F894DEBF0FBECDBF8C0185E0F801DE015C
:10283000119601900D928A95E1F7F801408131815E
:10284000F280258122952F7083819481892B31F02C
:102850003F3F31F481E04F3F19F403C081E001C0F4
:1028600080E080FD39C349833A8389819A812F832F
:102870000E94941C9E8388870E94931C0E94BB1B0D
:102880004E81E42FE295EF70F0E0E359FF4F2F8186
:1028900068850C94582C842F807F142F1F708823F8
:1028A00011F01295107FFF2059F0112309F45FC237
:1028B000812F68870E948F1D0E94B81D688557C2AE
:1028C000862F0E948C13112309F406C3812F0E94C6
:1028D000951D28960FB6F894DEBF0FBECDBFDF91D1
:1028E000CF911F910F91FF90EF90DF90CF900C94BC
:1028F000B81D842F807F942F9F70E92E803219F0AD
:10290000E29480EFE822662319F0613001F129C0DA
:10291000FF20A9F08E2D222349F1213039F5289688
:102920000FB6F894DEBF0FBECDBFDF91CF911F91E0
:102930000F91FF90EF90DF90CF900C949F1D22237A
:1029400019F0213009F4C8C20E94A21D2CC0FF203A
:10295000E9F0263008F0C0C20E94791D8E2129F0CE
:1029600022C0FF20F1F0211115C08E2D28960FB640
:10297000F894DEBF0FBECDBFDF91CF911F910F91B5
:10298000FF90EF90DF90CF900C94F613253008F075
:10299000A3C209C0F801858180FFE9C18F708583DA
:1029A000E4CF2111F8C18E2D66C1242F26952695DE
:1029B000237030E02115310521F021303105C9F0B7
:1029C0008BC2FF2021F0862F942F937002C080E0ED
:1029D00090E028960FB6F894DEBF0FBECDBFDF9112
:1029E000CF911F910F91FF90EF90DF90CF900C94BB
:1029F0001F11FF2021F0862F942F937002C080E0DA
:102A000090E028960FB6F894DEBF0FBECDBFDF91E1
:102A1000CF911F910F91FF90EF90DF90CF900C948A
:102A20004D11862FFF2019F00E94B72202C00E948C
:102A30001F2328960FB6F894DEBF0FBECDBFDF91DF
:102A4000CF911F910F91FF90EF90DF90CF900C945A
:102A5000A423842F837009F076C0F1103DC2262F85
:102A6000229526952770220F220F862F8F70C82E51
:102A7000D12CE12CF12C022E04C0CC0CDD1CEE1C60
:102A8000FF1C0A94D2F764FF10C06FE070E080E092
:102A900090E004C0660F771F881F991F2A95D2F710
:102AA000609570958095909503C060E070E0CB01D3
:102AB000242F269526952370422F50E04230510551
:102AC000D1F04330510559F16C297D298E299F2978
:102AD0004130510541F128960FB6F894DEBF0FBE84
:102AE000CDBFDF91CF911F910F91FF90EF90DF90BD
:102AF000CF900C94D01B6C297D298E299F29289674
:102B00000FB6F894DEBF0FBECDBFDF91CF911F91FE
:102B10000F91FF90EF90DF90CF900C94E21B0E94FA
:102B2000D01BC701B60128960FB6F894DEBF0FBEC2
:102B3000CDBFDF91CF911F910F91FF90EF90DF906C
:102B4000CF900C94BE1BFF2019F0842F817001C020
:102B50008695882309F4C0C1262F229526952770D3
:102B6000220F220F862F8F70C82ED12CE12CF12C32
:102B7000022E04C0CC0CDD1CEE1CFF1C0A94D2F704
:102B800064FF10C06FE070E080E090E004C0660F6A
:102B9000771F881F991F2A95D2F7609570958095A9
:102BA000909503C060E070E0CB01242F2695269518
:102BB0002370422F50E042305105D1F0433051058F
:102BC00059F16C297D298E299F294130510541F108
:102BD00028960FB6F894DEBF0FBECDBFDF91CF9120
:102BE0001F910F91FF90EF90DF90CF900C946F1C8E
:102BF0006C297D298E299F2928960FB6F894DEBF6F
:102C00000FBECDBFDF91CF911F910F91FF90EF903D
:102C1000DF90CF900C94811C0E946F1CC701B601FD
:102C200028960FB6F894DEBF0FBECDBFDF91CF91CF
:102C30001F910F91FF90EF90DF90CF900C945D1C4F
:102C4000603F49F118F4603E48F48CC0623F09F4DB
:102C500051C0E0F1633F09F461C084C0162F1F70BA
:102C6000842F8F71FF2021F00E94081C812F7ECEBF
:102C70000E94231C812F28960FB6F894DEBF0FBE4A
:102C8000CDBFDF91CF911F910F91FF90EF90DF901B
:102C9000CF900C94FD13FF20A9F0253008F01CC143
:102CA000842F8F7128960FB6F894DEBF0FBECDBF6C
:102CB000DF91CF911F910F91FF90EF90DF90CF9018
:102CC0000C94421C263008F007C1EACFFF20A1F087
:102CD000842F8F7128960FB6F894DEBF0FBECDBF3C
:102CE000DF91CF911F910F91FF90EF90DF90CF90E8
:102CF0000C94081CFF2061F3842F8F7128960FB667
:102D0000F894DEBF0FBECDBFDF91CF911F910F9121
:102D1000FF90EF90DF90CF900C94231CFF2091F058
:102D2000842F8F7128960FB6F894DEBF0FBECDBFEB
:102D3000DF91CF911F910F91FF90EF90DF90CF9097
:102D40000C94F91B28960FB6F894DEBF0FBECDBFCA
:102D5000DF91CF911F910F91FF90EF90DF90CF9077
:102D60000C94F41BFF20A1F0222309F4B1CF862F8D
:102D700028960FB6F894DEBF0FBECDBFDF91CF917E
:102D80001F910F91FF90EF90DF90CF900C949E12C7
:102D9000222309F4B1CF862F28960FB6F894DEBF10
:102DA0000FBECDBFDF91CF911F910F91FF90EF909C
:102DB000DF90CF900C948C134F70C8010E94B41F09
:102DC00028960FB6F894DEBF0FBECDBFDF91CF912E
:102DD0001F910F91FF90EF90DF90CF900C94061B06
:102DE000F1107AC0942F9F70492F50E04230510566
:102DF00009F440C0BCF44115510561F14130510561
:102E000009F06AC028960FB6F894DEBF0FBECDBF9A
:102E1000DF91CF911F910F91FF90EF90DF90CF90B6
:102E20000C946D2A43305105A9F14430510509F045
:102E300053C0862F28960FB6F894DEBF0FBECDBFC5
:102E4000DF91CF911F910F91FF90EF90DF90CF9086
:102E50000C94FA2A28960FB6F894DEBF0FBECDBFA9
:102E6000DF91CF911F910F91FF90EF90DF90CF9066
:102E70000C94492A28960FB6F894DEBF0FBECDBF3A
:102E8000DF91CF911F910F91FF90EF90DF90CF9046
:102E90000C949C2A28960FB6F894DEBF0FBECDBFC7
:102EA000DF91CF911F910F91FF90EF90DF90CF9026
:102EB0000C94C22A4F70C80128960FB6F894DEBF52
:102EC0000FBECDBFDF91CF911F910F91FF90EF907B
:102ED000DF90CF900C947B0728960FB6F894DEBF56
:102EE0000FBECDBFDF91CF911F910F91FF90EF905B
:102EF000DF90CF9008950E949C1D0E946B1D0E9440
:102F0000B81D0E94D2240E94A42380E090E00E9479
:102F10001F1180E090E00C944D110E948C1D0C94C8
:102F20007B170E94941C292F22952F7030E02C30A3
:102F300031054CF42A3031056CF42250310922302D
:102F4000310590F407C02C30310551F02F30310598
:102F500039F00AC0803E10F0803F31F481E00895DE
:102F600093FB882780F9089580E00895CF93DF933D
:102F700000D000D01F92CDB7DEB70F900F900F900A
:102F80000F900F90DF91CF910895CF93DF9300D0F2
:102F900000D000D0CDB7DEB726960FB6F894DEBFCE
:102FA0000FBECDBFDF91CF9108951F93CF93DF93D5
:102FB000C091BD0116E08091BE01C81799F0D0E024
:102FC0001C9FF0011D9FF00D1124E154FE4F408124
:102FD000518162817381848195810E94C5172196F8
:102FE000C770E9CFDF91CF911F9108954091EF0114
:102FF0005091F0016091F1017091F2018091F30123
:103000009091F4010C94C517CF938091F4018295AF
:103010008F7009F05FC08091F101882309F45AC0D4
:103020002091BD01A091BE016091EF017091F0016E
:103030008091F2019091F30131E06F3F09F030E0AF
:10304000B32FC6E02A1709F445C0009721F07F3F4F
:1030500021F44B2F03C041E001C040E030E040FDCF
:1030600035C0C29FF001C39FF00D1124E154FE4F03
:10307000418174132BC04081641328C042814111E7
:1030800025C0438154814817590710F44150510914
:10309000481B590B4F3A5105C8F48091F4018F70C9
:1030A00080618093F40186E0829FF001839FF00DA0
:1030B0001124EC53FE4F80818F70806180838FEEEE
:1030C00091E00E940414CF910C94D5172F5F3F4FCD
:1030D0002770B8CFCF910895CF92DF92EF92FF92F1
:1030E0000F931F93CF93DF93CDB7DEB762970FB6E1
:1030F000F894DEBF0FBECDBF8C0185E0F801DE0184
:103100001D9601900D928A95E1F7D8014C91119688
:103110005C91119712966C9112971396ED90FC901A
:1031200014977091EF01E091F0012091F20130913C
:10313000F3012115310531F0EF3F31F481E07F3F9C
:1031400019F403C081E001C080E0B82FB170CB2E2C
:1031500080FD6CC1D090F101DD2009F4F5C0F09143
:10316000F401E216F30638F0C701821B930B8F3A85
:10317000910548F09BC0209530952E0D3F1D2F3AAC
:10318000310508F093C08F2F807F09F052C0E513FE
:1031900014C0741312C0D62E61110FC0FF70F061FD
:1031A000F093F4010E94F6178FEE91E00E94041450
:1031B0008091F401F80185836CC1EF2831F05F3F05
:1031C00031F481E04F3F19F403C081E001C080E099
:1031D00080FD03C081E0862701C080E0F82FF170F8
:1031E000FF2E80FF1CC08091BD012091BE0136E002
:1031F000821709F428C190E0389FF001399FF00D43
:103200001124E154FE4F7181571306C0708147139A
:1032100003C07281671303C001968770E9CFD62E71
:10322000662309F436C18091F40181608093F40132
:1032300053C0E51308C0741306C0611104C0D8015F
:103240001596FC93AEC04D875E878D859E856A8BF3
:103250000E9491176A89882329F1D62E662311F1DD
:103260002091F401822F82958F7090E002970CF4E8
:1032700060C08091EF019091F00198878F8319864B
:10328000FB86EA862C87CE01079651C0E51731F1FF
:103290004D875E878D859E856A8B0E9491176A890E
:1032A00081112EC0C8010E940414A4C08F2F807FFA
:1032B00069F77E2DF98AE88A89890E94B6178FEE10
:1032C00091E00E940414EFEEF1E086E0DF011D9230
:1032D0008A95E9F70E94F617D12CDBC07413D8CF7A
:1032E0006111D6CFD8011596FC93C8010E94041431
:1032F000EFEEF1E086E0DF011D928A95E9F7C9C0A3
:10330000D62E662379F22091F401822F82958F7058
:1033100090E0029774F08091EF019091F0019A8310
:1033200089831B82FD82EC822E83CE0101960E944E
:10333000041486E0F801AFEEB1E001900D928A9599
:10334000E1F70E9404186FC0E216F30628F0C701E7
:10335000821B930B9C0104C0209530952E0D3F1DC0
:103360002F3A310508F052C0D62E662309F49ACFC1
:10337000E5132CC074132AC08091F40180FD1DC098
:10338000982F92959F70C9F0D80115968C93159738
:103390009F3039F09F5F9295907F8F70892B1596A3
:1033A0008C93C8010E94041486E0F801AFEEB1E0EE
:1033B00001900D928A95E1F736C086E0F801AFEEF4
:1033C000B1E001900D928A95E1F763C04D875E8769
:1033D0008D859E850E949117882379F086E0F801FB
:1033E000AFEEB1E001900D928A95E1F70E940418CA
:1033F0000E94F617DD24D3944CC08091F4018160C3
:103400008093F401C8010E94041443C07E2DF98A00
:10341000E88A89890E94B617EFEEF1E086E0DF01C5
:103420001D928A95E9F70E94F61733C0662309F4C6
:1034300039CF4D875E878D859E850E9491178823A1
:1034400009F430CFCBCF4D875E878D859E850E9456
:10345000941C292F22952F7030E0223031052CF456
:103460009F7041F0811106C00CC0243031052CF44E
:103470009F7049F4805E883020F0C8010E940414D7
:10348000CF2CDC2C06C0D80115969C91907F91F72B
:10349000F8CF8D2D62960FB6F894DEBF0FBECDBF6C
:1034A000DF91CF911F910F91FF90EF90DF90CF9020
:1034B00008951F93CF93DF93CDB7DEB72C970FB648
:1034C000F894DEBF0FBECDBF4F83588769877A87D8
:1034D0008B879C87CE0107960E946C188823C1F0C9
:1034E0002F8138858A859B85892B31F03F3F11F0EC
:1034F00080E003C02F3FE1F781E0811147C04F8199
:10350000588569857A858B859C850E94C5173EC044
:1035100086E0FE013796DE01119601900D928A95A4
:10352000E1F7FF81E8854A855B854115510531F05A
:10353000EF3F31F481E0FF3F19F403C081E001C0A7
:1035400080E080FD23C02091BE0130E0C9010196DA
:10355000877099276091BD0170E086179707F1F198
:10356000F983EA835D834C8396E0929FD001939F19
:10357000B00D1124A154BE4FFE01319601900D9261
:103580009A95E1F78093BE010E94D51716E08091CD
:10359000BD019091BE01891779F1189FC0011124D6
:1035A00081549E4F0E946C18882331F1E091BD0137
:1035B0001E9FF0011124E154FE4F40815181628130
:1035C0007381848195810E94C5178091BD0190E02F
:1035D0000196877099278093BD01D9CF0E948D17DE
:1035E0001092BE011092BD01EFEEF1E086E0DF0126
:1035F0001D928A95E9F7CACF2C960FB6F894DEBFD4
:103600000FBECDBFDF91CF911F910895DF92EF9252
:10361000FF920F931F93CF93DF93FC01009709F460
:103620008AC0E12CF12CDD24D394EF012196849102
:10363000853709F461C058F4843708F04EC08430EF
:1036400008F06AC08130D1F0823071F174C08837DF
:1036500009F45DC050F4863709F455C0873709F086
:103660006AC08E2D0E94891D54C09CE7980F903728
:1036700008F061C08F770E948C1350C08F010E5FDD
:103680001F4FFE01849190E2980F983050F487709C
:10369000FD2D01C0FF0F8A95EAF78F2F0E948F1D25
:1036A00015C00E949E1214C08F010E5F1F4FFE01B5
:1036B000849190E2980F983068F48770FD2D01C0D6
:1036C000FF0F8A95EAF78F2F0E94951D0E94B81D63
:1036D000E80124C00E948C13FBCF9F012E5F3F4F57
:1036E000FE01C491CC2369F08FE99FE00197F1F7C7
:1036F00000C00000C150F6CF9F012E5F3F4FFE017A
:10370000F490E9010BC00E94791DE82E07C00E94C9
:103710008C1D0E94B81D02C00E949E129F2D9923ED
:1037200041F0EFE9FFE03197F1F700C00000915060
:10373000F6CFFE017ACFDF91CF911F910F91FF90CD
:10374000EF90DF9008956093F9017093FA018093F0
:10375000FB019093FC010E941F1E0C947B17609349
:10376000F5017093F6018093F7019093F8010E94A0
:10377000201E0C947B1708950C94A31B0F931F938A
:103780000091F9011091FA012091FB013091FC01A7
:10379000602B712B822B932B1F910F910C94A31BE9
:1037A0000F931F930091F9011091FA012091FB01F1
:1037B0003091FC0160237123822393231F910F9189
:1037C0000C94A31B0F931F930091F9011091FA0120
:1037D0002091FB013091FC016027712782279327FC
:1037E0001F910F910C94A31B60E070E0CB010C942F
:1037F000AF1B41E050E060E070E004C0440F551F93
:10380000661F771F8A95D2F7CB01BA010C94AF1BC4
:1038100041E050E060E070E004C0440F551F661FB7
:10382000771F8A95D2F78091F5019091F601A091CA
:10383000F701B091F801482B592B6A2B7B2BCB0158
:10384000BA010C94AF1B41E050E060E070E004C0AE
:10385000440F551F661F771F8A95D2F740955095E4
:10386000609570958091F5019091F601A091F70116
:10387000B091F801482359236A237B23CB01BA0175
:103880000C94AF1B41E050E060E070E004C0440FD6
:10389000551F661F771F8A95D2F78091F501909189
:1038A000F601A091F701B091F801482759276A273E
:1038B0007B27CB01BA010C94AF1B0F931F93009190
:1038C000F5011091F6012091F7013091F801602B7C
:1038D000712B822B932B1F910F910C94AF1B0F9385
:1038E0001F930091F5011091F6012091F70130919D
:1038F000F80160237123822393231F910F910C946D
:10390000AF1B0F931F930091F5011091F6012091C9
:10391000F7013091F80160277127822793271F91C3
:103920000F910C94AF1B0895CF92DF92EF92FF920C
:103930000F931F93CF93DF93EC01C090F901D090C8
:10394000FA01E090FB01F090FC018091F50190916B
:10395000F601A091F701B091F801C82AD92AEA2A04
:10396000FB2A0FE110E0B701A601002E04C07695F6
:103970006795579547950A94D2F740FF07C0BE0157
:10398000802F0E94CF1F8130910539F40150110919
:1039900050F7BE0180E00E94CF1FDF91CF911F91B1
:1039A0000F91FF90EF90DF90CF90089590910B01D1
:1039B000992361F190910C01992341F1982F9695EB
:1039C000969596959F3188F4E0910D01F0910E0146
:1039D000E90FF11D877021E030E001C0220F8A95C8
:1039E000EAF78181822B818308959091200290FFD4
:1039F0002DC01F928F938BE994E09F938F930E9429
:103A000072070F900F900F900F90089540910D0145
:103A100050910E0120E030E09FEFFA01E20FF31F1A
:103A20006281681799F09F3F19F4611101C0922FCC
:103A30002F5F3F4F2E31310581F79F3F39F0FA015B
:103A4000E90FF11D97FDFA958283089508959091ED
:103A50000B01992369F190910C01992349F1982F59
:103A60009695969596959F3190F4E0910D01F09181
:103A70000E01E90FF11D877021E030E001C0220F37
:103A80008A95EAF7209581812823218308959091D2
:103A9000200290FF1FC01F928F938DE794E09F93A9
:103AA0008F930E9472070F900F900F900F900895C0
:103AB00040910D0150910E0120E030E0FA01E20F3B
:103AC000F31F9281981301C012822F5F3F4F2E3156
:103AD0003105A1F7089581E090E0E0910D01F091AA
:103AE0000E01E80FF91F1082019680329105A9F7A7
:103AF000089580911F02089590911F02982B909332
:103B00001F020895809590911F02982390931F02A1
:103B1000089580931F02089510921F0208959091B6
:103B20001E02982B90931E020895809590911E027C
:103B3000982390931E02089510921E020895809378
:103B4000FD0108951092FD01089540910D015091DD
:103B50000E0120E030E080E0FA01E20FF31F9181D6
:103B600091118F5F2F5F3F4F2F313105A9F70895D6
:103B7000E0910D01F0910E0180911F028083E09190
:103B80000D01F0910E01808190911E02892B80839E
:103B90009091FD01992361F0E0910D01F0910E01EA
:103BA0008081892B80830E94A51D81111092FD01C7
:103BB00080910D0190910E010C94CF1090933901DA
:103BC0008093380108958295982F9C7C96959695C0
:103BD000837344E0849F90011124922B892F8A7A69
:103BE00086959575990F892B08951F93CF93DF9331
:103BF0001F92CDB7DEB799830E94E31D182F9981DC
:103C0000892F0E94E31D212F30E0322F2227A901A6
:103C1000482BCA010F90DF91CF911F91089508950D
:103C2000CF93DF9300D000D01F92CDB7DEB70F90B7
:103C30000F900F900F900F90DF91CF9108950895FE
:103C400008950C945612089580913502843009F13C
:103C50001092210220E488E190E00FB6F894A89534
:103C6000809360000FBE2093600083B7817F8460E3
:103C700083BF83B7816083BF7894889583B78E7F35
:103C800083BF88E10FB6F8948093600010926000C3
:103C90000FBE0895CF930E945A120E94B7070E9448
:103CA0005B12C0E08C2F0E94B208892B29F4CF5FF1
:103CB000C530C1F780E001C081E0CF9108950E9436
:103CC00058120E948D170C94382A1F920F920FB62B
:103CD0000F9211248F939F93AF93BF9380912102F2
:103CE000811113C08091220290912302A09124029D
:103CF000B09125024196A11DB11D8093220290939F
:103D00002302A0932402B0932502BF91AF919F910B
:103D10008F910F900FBE0F901F90189582E084BD79
:103D200093E095BD9AEF97BD80936E0008952FB7ED
:103D3000F8948091220290912302A0912402B091E4
:103D400025022FBF08952FB7F89460912202709139
:103D5000230280912402909125022FBF0895CF92D3
:103D6000DF92EF92FF920F931F932FB7F894409139
:103D700022025091230260912402709125022FBFEC
:103D80006A017B01EE24FF248C0120E030E0C016A4
:103D9000D106E206F30610F441505109481B590BB5
:103DA000CA011F910F91FF90EF90DF90CF9008957F
:103DB0001F920F920FB60F9211248F939F93AF9380
:103DC000BF938091220290912302A0912402B0918E
:103DD00025020196A11DB11D80932202909323021A
:103DE000A0932402B0932502BF91AF919F918F9130
:103DF0000F900FBE0F901F9018950E94E70DF8943A
:103E00002FEF87EA91E6215080409040E1F700C013
:103E1000000087E090EBDC01809340029093410228
:103E2000A0934202B09343022CE088E190E00FB6E9
:103E3000F894A895809360000FBE20936000FFCF98
:103E40008D3B60F4883A90F5853A28F5843008F582
:103E5000813009F086C081E090E00895883E98F4B2
:103E6000803EB8F48F3B09F07CC00E948D172FEF85
:103E700080E792E0215080409040E1F700C00000D0
:103E80000E94FD1E6EC0803F08F46BC090E09065FC
:103E9000089590E00895853A21F0863A21F432E8B9
:103EA00003C031E801C033E820E458C0883A51F13A
:103EB000893A51F18A3A51F18B3A51F18C3A51F1E8
:103EC0008D3A51F18E3A51F18F3A51F1813B51F1D6
:103ED000803B51F1823B51F1833B51F1843B51F1E5
:103EE000853B51F1863B59F1873B59F1883B59F1AC
:103EF000893B59F18A3B59F18B3B61F18C3B61F570
:103F00003AE226C032EE29C039EE27C03AEE25C08B
:103F100035EB23C036EB21C033EB1FC034EB1DC0A3
:103F200037EB1BC03CEC19C03DEC17C033E805C0B3
:103F30003AE803C032E901C034E925E40FC031E2B8
:103F400007C033E205C034E203C035E201C036E207
:103F500026E404C037E2FCCF30E024E4832F922F24
:103F6000089580E090E0089580E090E008959EE05C
:103F7000799FF001112496E4899FE00DF11D112431
:103F8000E60FF11DE050FF4F84910895E82FF0E017
:103F9000EE0FFF1FE658F0408591949108950E941E
:103FA000B71F803EA8F4803C00F5813309F45CC063
:103FB00038F4893209F452C08A3209F45BC05FC018
:103FC0008933B1F08238A1F0853309F441C057C07C
:103FD000833E41F128F4803E99F0823EB9F04FC013
:103FE000863E31F1873E71F14AC00E94C61F089596
:103FF00090913E0290FD02C091FF41C080EE3FC013
:1040000080913E0280FFFACF89E339C080913E0261
:1040100082FF0CC080913E0284FF02C080E02FC06E
:1040200083EE2DC080913E0282FFF4CF82EE27C046
:1040300080913E0283FF0AC080913E0284FDEECF54
:1040400087EE1DC080913E0283FFF6CF86EE17C03B
:1040500080913E0285FF06C089E211C080913E0238
:1040600085FFFACF85E30BC080913E0286FF06C034
:104070008AE205C080913E0286FFFACF81E30E946A
:10408000201F0895BF92CF92DF92EF92FF920F937D
:104090001F93CF93DF938C01B12CEE24E394F12C8A
:1040A0008B2D0E94B2086C01C0E0D0E097010C2E6D
:1040B00002C0220F331F0A94E2F72C213D21232B4B
:1040C000B1F06C2F7B2D80E00E94CF1F9C018017E8
:1040D000910759F0832F807E932F907C11F0803AC6
:1040E00031F430E02017310711F481E009C0219646
:1040F000CE30D105D9F6B39485E0B812D1CF80E0A7
:10410000DF91CF911F910F91FF90EF90DF90CF90B3
:10411000BF900895CF93DF93EC018CE290E00E9472
:104120004220882329F0CE01DF91CF910C944220C8
:1041300080E0DF91CF910895CF930E9407228111F3
:1041400002C00E94E82180EC94E00E94D906C5E6F6
:10415000C15049F00E94B7078FE39CE90197F1F73E
:1041600000C00000F5CF89EB94E00E94D90689E2F7
:1041700090E00E948A20811129C18AE290E00E9489
:104180008A2081110E94E82185E090E00E948A2027
:1041900081110E94FD1E0E94231E0E941222809304
:1041A000200287E090E00E948A208823B1F18BE111
:1041B00090E00E948A20882351F09091200291FB88
:1041C000882780F921E0822780FB91F924C08EE0C6
:1041D00090E00E948A20882351F09091200292FB67
:1041E000882780F921E0822780FB92F914C080E1C2
:1041F00090E00E948A2090912002882341F093FB56
:10420000882780F921E0822780FB93F904C0892F59
:10421000809580FB90F990932002809120020E946B
:1042200016220E94242280933E0280EE90E00E949B
:104230008A20882341F080913E02982F909590FB30
:1042400080F980933E0289E390E00E948A208823CF
:1042500059F090913E0291FB882780F921E0822756
:1042600080FB91F990933E0282EE90E00E948A20BA
:10427000882359F090913E0292FB882780F921E033
:10428000822780FB92F990933E0286EE90E00E9496
:104290008A20882359F090913E0293FB882780F969
:1042A00021E0822780FB93F990933E0283EE90E019
:1042B0000E948A20882359F090913E0294FB88271F
:1042C00080F921E0822780FB94F990933E0285E3F8
:1042D00090E00E948A20882359F090913E0295FB3D
:1042E000882780F921E0822780FB95F990933E0290
:1042F00081E390E00E948A20882359F090913E0249
:1043000096FB882780F921E0822780FB96F990931D
:104310003E0281E190E00E948A20882359F090912A
:104320003E0297FB882780F921E0822780FB97F9DE
:1043300090933E0280913E020E94282280913E028C
:1043400087FB882780F980930C0187E290E00E9428
:104350008A20C82F8EE190E00E948A208111C260DD
:104360008FE190E00E948A208111C46080E290E099
:104370000E948A208111C86081E290E00E948A2018
:104380008111C06182E290E00E948A208111C062A6
:1043900083E290E00E948A208111C06484E290E070
:1043A0000E948A20882311F0C06802C0CC2329F023
:1043B0008C2F0E941F226C2F03C00E941B22682F8B
:1043C00070E080E090E0CF910C94BC1BCF910895F9
:1043D0006DEE7EEF80E090E00E948E2C60E082E047
:1043E00090E00E94802C60E083E090E00E94802CAE
:1043F00060E084E090E00E94802C60E085E090E046
:104400000E94802C60E086E090E00C94802C80E09C
:1044100090E00E947A2C21E08D3E9E4F09F020E032
:10442000822F089582E090E00C94722C682F82E035
:1044300090E00C94802C83E090E00C94722C682F18
:1044400083E090E00C94802C84E090E00C94722C3B
:10445000682F84E090E00C94802C86E090E00C942F
:10446000722C682F86E090E00C94802C80912802BA
:1044700080FF0BC06091120185E0689FB00111249C
:1044800075956795759567952AC081FF09C06091FC
:10449000120185E0689FB0011124759567951FC0D2
:1044A00082FF07C06091120185E0689FB00111246E
:1044B00016C0409129024423C9F0609111014617AA
:1044C00088F72091120185E0289F90011124429FD6
:1044D000C001439F900D112470E00E94442C60386D
:1044E000710540F46115710539F002C065E070E0B6
:1044F000862F08958FE7089581E00895809128021E
:1045000080FF08C06091100170E075956795759502
:10451000679521C081FF06C06091100170E075951C
:10452000679519C082FF04C06091100170E010C04F
:10453000809129028823C1F060910F018617A0F7AE
:1045400090911001989FC001112470E00E94442CAA
:104550006038710528F46115710521F0862F0895E2
:104560008FE7089581E0089561E070E0F4CF803F27
:1045700021F40E943622819504C0813F29F40E94D3
:10458000362280932C020895823F21F40E94362225
:10459000819504C0833F29F40E94362280932B0228
:1045A0000895893F19F40E947E2205C08A3F31F4A4
:1045B0000E947E22819580932D0208958B3F21F4E5
:1045C0000E947E22819504C08C3F29F40E947E22A5
:1045D00080932E020895843F21F480912A02816005
:1045E00017C0853F21F480912A02826011C0863F66
:1045F00021F480912A0284600BC0873F21F48091CE
:104600002A02886005C0883F31F480912A028061C7
:1046100080932A0208958D3F21F4809128028160C1
:104620000BC08E3F21F480912802826005C08F3F2D
:1046300029F4809128028460809328020895803FA5
:1046400039F480912C0287FF6CC010922C0269C053
:10465000813F29F480912C021816BCF362C090911E
:104660002B02823F29F497FF5CC010922B0259C0A5
:10467000833F19F41916CCF354C0893F41F480915B
:104680002D0218160CF04DC010922D024AC08A3F20
:1046900029F480912D0287FF44C0F6CF8B3F39F477
:1046A00080912E0287FF3DC010922E023AC08C3FAF
:1046B00029F480912E021816BCF333C0843F21F4F4
:1046C00080912A028E7F17C0853F21F480912A02B3
:1046D0008D7F11C0863F21F480912A028B7F0BC011
:1046E000873F21F480912A02877F05C0883F31F4FB
:1046F00080912A028F7E80932A0213C08D3F21F47D
:10470000809128028E7F0BC08E3F21F48091280279
:104710008D7F05C08F3F29F4809128028B7F809385
:10472000280280912B0281110EC080912C028111F0
:104730000AC080912D02811106C080912E02811144
:1047400002C01092290208958091200283FF7EC04A
:104750008CEF94E00E94D90680912A021F928F93D9
:1047600087EF94E09F938F930E94720785EF94E008
:104770000E94D90620912B02822F992787FD9095C0
:104780009F932F9382EF94E09F938F930E947207E1
:1047900080EF94E00E94D90620912C02822F992765
:1047A00087FD90959F932F938DEE94E09F938F9329
:1047B0000E9472078BEE94E00E94D90620912D0290
:1047C000822F992787FD90959F932F9388EE94E0F1
:1047D0009F938F930E94720786EE94E00E94D90601
:1047E00020912E02822F992787FD90959F932F93DA
:1047F00083EE94E09F938F930E94720780EE94E083
:104800000E94D906809129021F928F938DED94E02A
:104810009F938F930E9472078BED94E00E94D906BC
:10482000809128021F928F9388ED94E09F938F933D
:104830000E94720785ED94E00E94D9068DB79EB75D
:104840004C960FB6F8949EBF0FBE8DBF8AE292E0E1
:104850000E9414110E94971E9093270280932602B3
:1048600008951F93CF93DF938091260290912702A2
:104870000E94AF1E40912902442321F02091130190
:1048800030E006C0209114015AE0259F90011124C8
:104890008217930708F482C080912B0210912C029A
:1048A000D0912D02C0912E02811107C0111105C0B7
:1048B000D11103C0CC2309F471C04F3F19F04F5FF1
:1048C00040932902181624F40E94362280932B026A
:1048D00080912B0287FF05C00E943622819580932C
:1048E0002B02111624F40E94362280932C02809110
:1048F0002C0287FF05C00E943622819580932C02EE
:1049000060912B02662339F110912C02112319F1C9
:10491000772767FD7095872F972F0E94492B23E3F8
:1049200033E343E35FE30E94AD2B0E94162B6093B9
:104930002B02612F772767FD7095872F972F0E9495
:10494000492B23E333E343E35FE30E94AD2B0E9453
:10495000162B60932C021D1624F40E947E22809355
:104960002D0280912D0287FF05C00E947E22819535
:1049700080932D021C1624F40E947E2280932E0226
:1049800080912E0287FF05C00E947E228195809330
:104990002E02DF91CF911F910C94A423DF91CF9130
:1049A0001F910895EAE2F2E085E0DF011D928A9509
:1049B000E9F7109229021092280208958FE197E0FA
:1049C0000E94D9061F9281E08F931F9285E08F93FA
:1049D00081ED96E09F938F930E9472070F900F9046
:1049E0000F900F900F900F9008958330E9F128F405
:1049F000813061F0823009F10895853009F462C098
:104A000008F449C0863009F474C008952091140157
:104A1000862F90E0820F911D8F3F910520F4620F49
:104A20006093140103C08FEF8093140180911401EF
:104A30001F928F938AE096E072C020911301862F17
:104A400090E0820F911D8F3F910520F4620F6093DB
:104A5000130103C08FEF80931301809113011F9204
:104A60008F9388EF95E05BC020911201862F90E034
:104A7000820F911D8F3F910520F4620F6093120108
:104A800003C08FEF80931201809112011F928F93C8
:104A900085EE95E044C020911101862F90E0820FB1
:104AA000911D8F3F910520F4620F6093110103C0A7
:104AB0008FEF80931101809111011F928F9380EDF0
:104AC00095E02DC020911001862F90E0820F911D5E
:104AD0008F3F910520F4620F6093100103C08FEFA8
:104AE00080931001809110011F928F9387EB95E0C6
:104AF00016C020910F01862F90E0820F911D8F3FED
:104B0000910520F4620F60930F0103C08FEF809333
:104B10000F0180910F011F928F938CE995E09F9375
:104B20008F930E9472070F900F900F900F9008952F
:104B3000833081F128F4813059F08230D1F008952A
:104B4000853009F449C0B8F1863009F456C008959B
:104B500080911401681720F4861B8093140102C011
:104B600010921401809114011F928F938DE895E0AB
:104B700054C080911301681720F4861B80931301A1
:104B800002C010921301809113011F928F938BE743
:104B900095E043C080911201681720F4861B809332
:104BA000120102C010921201809112011F928F9384
:104BB00088E695E032C080911101681720F4861BC9
:104BC0008093110102C010921101809111011F9276
:104BD0008F9383E595E021C080911001681720F440
:104BE000861B8093100102C0109210018091100169
:104BF0001F928F938AE395E010C080910F01681790
:104C000020F4861B80930F0102C010920F01809147
:104C10000F011F928F938FE195E09F938F930E94D6
:104C200072070F900F900F900F900895CF93C82F99
:104C30001F928F9324E238E03F932F930E947207D4
:104C400061E070E080E090E004C0660F771F881F8D
:104C5000991FCA95D2F70E94BC1B0F900F900F901E
:104C60000F90CF910C948D17CF938B3109F409C21B
:104C700008F049C08E3009F417C200F5873009F4F6
:104C8000E7C1A8F4863009F095C280912002817FA7
:104C90008E7F8093200289E298E00E94D90685EAFF
:104CA0009CE00E94D90681E080933002CFC1883019
:104CB00009F45BC08B3009F4C5C17CC2813109F4B1
:104CC00061C220F4803109F402C274C2863109F451
:104CD00018C2893109F06EC289E19CE00E94D906B0
:104CE0008DEE9BE00E94D90686EA9BE00E94D906E1
:104CF00089E79BE00E94D90684E39BE00E94D906E5
:104D000086E09BE0A1C1853309F44EC268F4873286
:104D100009F44AC228F48E3108F44CC28D5147C2BE
:104D2000893209F441C246C2833438F48A3308F028
:104D30003DC2883309F486C13DC2833409F434C2CC
:104D4000883409F037C20E948D1784E99CE00E94E4
:104D5000D9069FEF23ED80E3915020408040E1F79A
:104D600000C000000E94FD1E71C189EA9CE00E9403
:104D7000D90683E69AE00E94D9060E941B221F9260
:104D80008F9380E69AE09F938F930E9472078EE53F
:104D90009AE00E94D9060E941222C82F8BE49AE062
:104DA0000E94D9061F92CF9326E43AE03F932F93B7
:104DB0000E94720784E49AE00E94D9068AE39AE08E
:104DC0000E94D9068C2F81701F928F9327E33AE0BF
:104DD0003F932F930E94720785E39AE00E94D906C1
:104DE0008BE29AE00E94D906C1FB882780F91F92C6
:104DF0008F9328E23AE03F932F930E94720786E256
:104E00009AE00E94D9068AE19AE00E94D906C2FB84
:104E1000882780F91F928F9327E13AE03F932F93E1
:104E20000E94720785E19AE00E94D9068CE09AE020
:104E30000E94D906C3FBCC27C0F91F92CF9389E00B
:104E40009AE09F938F930E94720787E09AE00E94F6
:104E5000D9060E942422C82F83EF99E00E94D90628
:104E60001F92CF932EEE39E03F932F930E9472074B
:104E70008CEE99E00E94D90683ED99E00E94D90654
:104E80008C2F81701F928F9320ED39E03F932F93E9
:104E90000E9472078DB79EB780960FB6F8949EBF9A
:104EA0000FBE8DBF8EEC99E00E94D90687EB99E08A
:104EB0000E94D906C1FB882780F91F928F9324EBAB
:104EC00039E03F932F930E94720782EB99E00E9492
:104ED000D90680EA99E00E94D906C2FB882780F9AA
:104EE0001F928F932DE939E03F932F930E94720711
:104EF0008BE999E00E94D90689E899E00E94D906D9
:104F0000C3FB882780F91F928F9326E839E03F93EF
:104F10002F930E94720784E899E00E94D9068AE7DD
:104F200099E00E94D906C4FB882780F91F928F93CD
:104F300027E739E03F932F930E94720785E799E0B6
:104F40000E94D90683E699E00E94D906C5FB88270E
:104F500080F91F928F9320E639E03F932F930E94B0
:104F600072078EE599E00E94D90682E499E00E94DA
:104F7000D906C6FB882780F91F928F932FE339E06B
:104F80003F932F930E9472078DE399E00E94D90608
:104F900085E399E00E94D906C7FBCC27C0F91F9290
:104FA000CF9382E399E09F938F930E94720780E3EF
:104FB00099E00E94D9060E942D22C82F89E199E02C
:104FC0000E94D9061F92CF9324E139E03F932F939B
:104FD0000E9472078DB79EB780960FB6F8949EBF59
:104FE0000FBE8DBF82E199E00E94D90688E099E06A
:104FF0000E94D9068C2F81701F928F9325E039E093
:105000003F932F930E94720783E099E00E94D90694
:105010008AEF98E00E94D906C6951F92CF9387EF3A
:1050200098E09F938F930E94720785EF98E00E940B
:10503000D9068DB79EB708960FB6F8949EBF0FBEDF
:105040008DBF04C080E598E00E94D906C1E0B7C0DA
:1050500080912002C82FC17080FF09C087E89CE0C2
:105060000E94D90680912002817F8E7F44C08BE709
:105070009CE00E94D90680912002816080932002EA
:10508000E5CF8091200281FBCC27C0F991E0C927B0
:10509000C0FB81F980932002CC2319F08EE69CE0BE
:1050A00025C080E69CE0D0CF8091200282FBCC27F7
:1050B000C0F991E0C927C0FB82F980932002CC237C
:1050C00019F081E59CE012C081E49CE0BDCF8091A5
:1050D000200283FBCC27C0F991E0C927C0FB83F9EC
:1050E00080932002CC2351F085E39CE00E94D906F6
:1050F0008091200281608093200261C088E29CE060
:10510000A3CF88EF9AE00E94D9060E94C3101F9295
:105110008F938EED9AE09F938F930E9472078091F8
:105120000B011F928F9387EC9AE09F938F930E94BD
:1051300072078091AB011F928F9384EB9AE09F934B
:105140008F930E94720780910C011F928F9381EAC6
:105150009AE09F938F930E9472070E94A31E9F93D1
:105160008F937F936F938AE89AE09F938F930E9427
:1051700072078DB79EB746960FB6F8949EBF0FBEC6
:105180008DBF64CF0E948D17C0910C0181E0C827AC
:10519000C0930C01CC2329F080E89AE00E94D90644
:1051A0000EC085E79AE050CF80E001C089530E948D
:1051B00016264CCF83E79AE00E94D906C0E08C2FD8
:1051C000CF91089580E0089580E00895CF93C82F8F
:1051D00080913002813071F020F0823009F448C0B3
:1051E0003FC1A0910D01B0910E018C91823209F066
:1051F00039C107C0A0910D01B0910E018C9182328E
:1052000049F48C2F0E94E22881112FC08C2F0E941C
:1052100034262CC08C2F0E94E428811126C0C43172
:10522000E1F070F4CB3081F0C031D1F40E94DE2483
:105230008CE198E00E94D90682E08093300215C08C
:10524000C93259F0C83361F489E298E00E94D90666
:1052500080E298E00E94D90608C01092300204C192
:105260008AE198E00E94D906FFC081E08170FEC00B
:10527000C43228F5CE3108F0C1C0CB30A1F1D0F452
:10528000C73009F0D3C08EE18093140182E380938C
:1052900013018AE08093120184E18093110188E078
:1052A0008093100188E280930F0180EC96E00E94C9
:1052B000D906BFC0C33149F1C431C1F0B7C0CB3446
:1052C00009F4A9C028F4C93289F0C83361F0AEC02E
:1052D000C13509F49EC0C23509F499C0CE3409F035
:1052E000A5C06AE09EC00E94DE24A3C080912F0268
:1052F000882319F010922F029CC08DEC96E00E943A
:10530000D90681E080933002B1C087EA96E00E941E
:10531000D90685E996E00E94D906809114011F9272
:105320008F9382E996E09F938F930E94720780E9A2
:1053300096E00E94D9068EE796E00E94D9068091F9
:1053400013011F928F938BE796E09F938F930E9498
:10535000720789E796E00E94D9068AE696E00E94E5
:10536000D906809112011F928F9387E696E09F9352
:105370008F930E94720785E696E00E94D90684E525
:1053800096E00E94D906809111011F928F9381E5CA
:1053900096E09F938F930E9472078FE496E00E949D
:1053A000D9068AE396E00E94D906809110011F92E7
:1053B0008F9387E396E09F938F930E94720785E314
:1053C00096E00E94D9068EE196E00E94D90680916F
:1053D0000F011F928F938BE196E09F938F930E9412
:1053E000720789E196E00E94D9068DB79EB748966C
:1053F0000FB6F8949EBF0FBE8DBF1BC0CE51EC2FD1
:10540000F0E0E25DFE4F808180932F0212C061E0E8
:1054100003C061E006C06AE080912F020E94F5247B
:1054200008C080912F020E94982503C08EEB96E061
:1054300013C080912F02882369F01F928F9388EB0D
:1054400096E09F938F930E9472070F900F900F909A
:105450000F9004C085EB96E00E94D90681E006C05B
:105460001092300280E002C080E000CFCF9108951A
:105470000E940722811102C00E94E8210E942D2271
:1054800080933F0280FF02C0869501C080E00C94AB
:10549000020980913F02982F969539F481708260BD
:1054A000816080933F020E9431228091200280FF20
:1054B0000FC080913F0286951F928F9386EF9CE0EC
:1054C0009F938F930E9472070F900F900F900F90F1
:1054D00080913F0286950C94020980913F02982F9B
:1054E000969591F09158990F8170892B80933F0286
:1054F0008E7F91E009F490E080913F0290FB80F96B
:1055000080933F020E9431228091200280FF0FC0D1
:1055100080913F0286951F928F938EED9CE09F9322
:105520008F930E9472070F900F900F900F908091B1
:105530003F0286950C94020980913F02982F909526
:1055400090FB80F980933F020E94312280912002DB
:1055500080FF0FC080913F0281701F928F9388EC73
:105560009CE09F938F930E9472070F900F900F9073
:105570000F9080913F0280FF02C0869501C080E0BD
:105580000C94020930913F02232F26952F5F2F772D
:10559000822F90E0317002972CF4220F232B20935E
:1055A0003F0202C030933F0280913F028E7F91E024
:1055B00009F490E080913F0290FB80F980933F02D4
:1055C0000E9431228091200280FF0FC080913F0213
:1055D00086951F928F9384EB9CE09F938F930E94FC
:1055E00072070F900F900F900F9080913F02869559
:1055F0000C94020920913F02922F96959827990FBB
:10560000822F8170892B80933F028E7F91E009F475
:1056100090E080913F0290FB80F980933F020E94CE
:10562000312280913F0286950C94020904D068943F
:10563000B1118DC0089570D088F09F5790F0B92FA8
:105640009927B751A0F0D1F0660F771F881F991FD7
:105650001AF0BA95C9F712C0B13081F077D0B1E035
:10566000089574C0672F782F8827B85F39F0B93F45
:10567000CCF3869577956795B395D9F73EF49095D9
:105680008095709561957F4F8F4F9F4F0895E89457
:1056900009C097FB3EF490958095709561957F4F7A
:1056A0008F4F9F4F9923A9F0F92F96E9BB27939528
:1056B000F695879577956795B795F111F8CFFAF438
:1056C000BB0F11F460FF1BC06F5F7F4F8F4F9F4F69
:1056D00016C0882311F096E911C0772321F09EE8C7
:1056E000872F762F05C0662371F096E8862F70E02D
:1056F00060E02AF09A95660F771F881FDAF7880F07
:105700009695879597F9089557FD9058440F551F22
:1057100059F05F3F71F04795880F97FB991F61F033
:105720009F3F79F087950895121613061406551FAA
:10573000F2CF4695F1DF08C0161617061806991F16
:10574000F1CF86957105610508940895E894BB270B
:1057500066277727CB0197F908950BD078C069D0D9
:1057600028F06ED018F0952309F05AC05FC01124BC
:10577000EECFCADFA0F3959FD1F3950F50E0551FF0
:10578000629FF001729FBB27F00DB11D639FAA2796
:10579000F00DB11DAA1F649F6627B00DA11D661FE5
:1057A000829F2227B00DA11D621F739FB00DA11D06
:1057B000621F839FA00D611D221F749F3327A00DC0
:1057C000611D231F849F600D211D822F762F6A2F5C
:1057D00011249F5750408AF0E1F088234AF0EE0FE1
:1057E000FF1FBB1F661F771F881F91505040A9F7EE
:1057F0009E3F510570F014C0AACF5F3FECF3983E76
:10580000DCF3869577956795B795F795E7959F5F54
:10581000C1F7FE2B880F911D9695879597F90895EE
:1058200097F99F6780E870E060E008959FEF80EC53
:10583000089500240A9416161706180609060895F6
:1058400000240A9412161306140605060895092E5C
:105850000394000C11F4882352F0BB0F40F4BF2BCB
:1058600011F460FF04C06F5F7F4F8F4F9F4F08950B
:10587000991B79E004C0991F961708F0961B881FA2
:105880007A95C9F78095089597FB072E16F4009432
:1058900007D077FD09D00E945E2C07FC05D03EF4AE
:1058A000909581959F4F0895709561957F4F0895CC
:1058B000EE0FFF1F0590F491E02D0994AA1BBB1B6E
:1058C00051E107C0AA1FBB1FA617B70710F0A61B00
:1058D000B70B881F991F5A95A9F780959095BC0121
:1058E000CD010895F999FECF92BD81BDF89A99270F
:1058F00080B50895A8E1B0E042E050E00C94952C0A
:10590000262FF999FECF1FBA92BD81BD20BD0FB6DB
:10591000F894FA9AF99A0FBE019608950E94802C85
:10592000272F0C94812CDC01CB01FC01F999FECFCF
:1059300006C0F2BDE1BDF89A319600B40D92415017
:0A5940005040B8F70895F894FFCF27
:10594A00051009010ADE09AA0977090101FE0128E1
:10595A0008140A321E404D3622390104B4037E036C
:10596A005C0323039602AF02C802E10201030102AB
:08597A000304050607080900FB
:00000001FF
